{
  "_format": "hh-sol-artifact-1",
  "contractName": "Owned",
  "sourceName": "Utils/Owned.sol",
  "abi": [
    {
      "inputs": [
        {
          "internalType": "address",
          "name": "_owner",
          "type": "address"
        }
      ],
      "stateMutability": "nonpayable",
      "type": "constructor"
    },
    {
      "anonymous": false,
      "inputs": [
        {
          "indexed": false,
          "internalType": "address",
          "name": "oldOwner",
          "type": "address"
        },
        {
          "indexed": false,
          "internalType": "address",
          "name": "newOwner",
          "type": "address"
        }
      ],
      "name": "OwnerChanged",
      "type": "event"
    },
    {
      "anonymous": false,
      "inputs": [
        {
          "indexed": false,
          "internalType": "address",
          "name": "newOwner",
          "type": "address"
        }
      ],
      "name": "OwnerNominated",
      "type": "event"
    },
    {
      "anonymous": false,
      "inputs": [
        {
          "indexed": false,
          "internalType": "address",
          "name": "oldOwner",
          "type": "address"
        }
      ],
      "name": "OwnerRemoved",
      "type": "event"
    },
    {
      "inputs": [],
      "name": "acceptOwnership",
      "outputs": [],
      "stateMutability": "nonpayable",
      "type": "function"
    },
    {
      "inputs": [
        {
          "internalType": "address",
          "name": "_owner",
          "type": "address"
        }
      ],
      "name": "nominateNewOwner",
      "outputs": [],
      "stateMutability": "nonpayable",
      "type": "function"
    },
    {
      "inputs": [],
      "name": "nominatedOwner",
      "outputs": [
        {
          "internalType": "address",
          "name": "",
          "type": "address"
        }
      ],
      "stateMutability": "view",
      "type": "function"
    },
    {
      "inputs": [],
      "name": "owner",
      "outputs": [
        {
          "internalType": "address",
          "name": "",
          "type": "address"
        }
      ],
      "stateMutability": "view",
      "type": "function"
    },
    {
      "inputs": [],
      "name": "removeOwnership",
      "outputs": [],
      "stateMutability": "nonpayable",
      "type": "function"
    }
  ],
  "bytecode": "0x608060405234801561001057600080fd5b506040516109b73803806109b783398181016040528101906100329190610184565b600073ffffffffffffffffffffffffffffffffffffffff168173ffffffffffffffffffffffffffffffffffffffff16036100a1576040517f08c379a00000000000000000000000000000000000000000000000000000000081526004016100989061020e565b60405180910390fd5b806000806101000a81548173ffffffffffffffffffffffffffffffffffffffff021916908373ffffffffffffffffffffffffffffffffffffffff1602179055507fb532073b38c83145e3e5135377a08bf9aab55bc0fd7c1179cd4fb995d2a5159c60008260405161011392919061023d565b60405180910390a150610266565b600080fd5b600073ffffffffffffffffffffffffffffffffffffffff82169050919050565b600061015182610126565b9050919050565b61016181610146565b811461016c57600080fd5b50565b60008151905061017e81610158565b92915050565b60006020828403121561019a57610199610121565b5b60006101a88482850161016f565b91505092915050565b600082825260208201905092915050565b7f4f776e657220616464726573732063616e6e6f74206265203000000000000000600082015250565b60006101f86019836101b1565b9150610203826101c2565b602082019050919050565b60006020820190508181036000830152610227816101eb565b9050919050565b61023781610146565b82525050565b6000604082019050610252600083018561022e565b61025f602083018461022e565b9392505050565b610742806102756000396000f3fe608060405234801561001057600080fd5b50600436106100575760003560e01c80631627540c1461005c57806353a47bb71461007857806379ba5097146100965780638da5cb5b146100a0578063d99bb9f7146100be575b600080fd5b61007660048036038101906100719190610557565b6100c8565b005b6100806101d1565b60405161008d9190610593565b60405180910390f35b61009e6101f7565b005b6100a86103a8565b6040516100b59190610593565b60405180910390f35b6100c66103cc565b005b60008054906101000a900473ffffffffffffffffffffffffffffffffffffffff1673ffffffffffffffffffffffffffffffffffffffff163373ffffffffffffffffffffffffffffffffffffffff1614610156576040517f08c379a000000000000000000000000000000000000000000000000000000000815260040161014d90610631565b60405180910390fd5b80600160006101000a81548173ffffffffffffffffffffffffffffffffffffffff021916908373ffffffffffffffffffffffffffffffffffffffff1602179055507f906a1c6bd7e3091ea86693dd029a831c19049ce77f1dce2ce0bab1cacbabce22816040516101c69190610593565b60405180910390a150565b600160009054906101000a900473ffffffffffffffffffffffffffffffffffffffff1681565b600160009054906101000a900473ffffffffffffffffffffffffffffffffffffffff1673ffffffffffffffffffffffffffffffffffffffff163373ffffffffffffffffffffffffffffffffffffffff1614610287576040517f08c379a000000000000000000000000000000000000000000000000000000000815260040161027e906106c3565b60405180910390fd5b7fb532073b38c83145e3e5135377a08bf9aab55bc0fd7c1179cd4fb995d2a5159c60008054906101000a900473ffffffffffffffffffffffffffffffffffffffff16600160009054906101000a900473ffffffffffffffffffffffffffffffffffffffff166040516102fa9291906106e3565b60405180910390a1600160009054906101000a900473ffffffffffffffffffffffffffffffffffffffff166000806101000a81548173ffffffffffffffffffffffffffffffffffffffff021916908373ffffffffffffffffffffffffffffffffffffffff1602179055506000600160006101000a81548173ffffffffffffffffffffffffffffffffffffffff021916908373ffffffffffffffffffffffffffffffffffffffff160217905550565b60008054906101000a900473ffffffffffffffffffffffffffffffffffffffff1681565b60008054906101000a900473ffffffffffffffffffffffffffffffffffffffff1673ffffffffffffffffffffffffffffffffffffffff163373ffffffffffffffffffffffffffffffffffffffff161461045a576040517f08c379a000000000000000000000000000000000000000000000000000000000815260040161045190610631565b60405180910390fd5b7f58619076adf5bb0943d100ef88d52d7c3fd691b19d3a9071b555b651fbf418da60008054906101000a900473ffffffffffffffffffffffffffffffffffffffff166040516104a99190610593565b60405180910390a160008060006101000a81548173ffffffffffffffffffffffffffffffffffffffff021916908373ffffffffffffffffffffffffffffffffffffffff160217905550565b600080fd5b600073ffffffffffffffffffffffffffffffffffffffff82169050919050565b6000610524826104f9565b9050919050565b61053481610519565b811461053f57600080fd5b50565b6000813590506105518161052b565b92915050565b60006020828403121561056d5761056c6104f4565b5b600061057b84828501610542565b91505092915050565b61058d81610519565b82525050565b60006020820190506105a86000830184610584565b92915050565b600082825260208201905092915050565b7f4f6e6c792074686520636f6e7472616374206f776e6572206d6179207065726660008201527f6f726d207468697320616374696f6e0000000000000000000000000000000000602082015250565b600061061b602f836105ae565b9150610626826105bf565b604082019050919050565b6000602082019050818103600083015261064a8161060e565b9050919050565b7f596f75206d757374206265206e6f6d696e61746564206265666f726520796f7560008201527f2063616e20616363657074206f776e6572736869700000000000000000000000602082015250565b60006106ad6035836105ae565b91506106b882610651565b604082019050919050565b600060208201905081810360008301526106dc816106a0565b9050919050565b60006040820190506106f86000830185610584565b6107056020830184610584565b939250505056fea264697066735822122050ec9819cdb195fe2ef12ed4951516378d855483c83f9b222a3086e106cc0c4164736f6c63430008110033",
  "linkReferences": {},
  "deployedLinkReferences": {}
}