{
  "_format": "hh-sol-artifact-1",
  "contractName": "GuildToken",
  "sourceName": "contracts/GuildToken.sol",
  "abi": [
    {
      "inputs": [
        {
          "internalType": "string",
          "name": "_name",
          "type": "string"
        },
        {
          "internalType": "string",
          "name": "_symbol",
          "type": "string"
        },
        {
          "internalType": "uint256",
          "name": "_genesis_supply",
          "type": "uint256"
        },
        {
          "internalType": "address",
          "name": "_smartcontract_owner",
          "type": "address"
        }
      ],
      "stateMutability": "nonpayable",
      "type": "constructor"
    },
    {
      "anonymous": false,
      "inputs": [
        {
          "indexed": true,
          "internalType": "address",
          "name": "owner",
          "type": "address"
        },
        {
          "indexed": true,
          "internalType": "address",
          "name": "spender",
          "type": "address"
        },
        {
          "indexed": false,
          "internalType": "uint256",
          "name": "value",
          "type": "uint256"
        }
      ],
      "name": "Approval",
      "type": "event"
    },
    {
      "anonymous": false,
      "inputs": [
        {
          "indexed": false,
          "internalType": "address",
          "name": "oldOwner",
          "type": "address"
        },
        {
          "indexed": false,
          "internalType": "address",
          "name": "newOwner",
          "type": "address"
        }
      ],
      "name": "OwnerChanged",
      "type": "event"
    },
    {
      "anonymous": false,
      "inputs": [
        {
          "indexed": false,
          "internalType": "address",
          "name": "newOwner",
          "type": "address"
        }
      ],
      "name": "OwnerNominated",
      "type": "event"
    },
    {
      "anonymous": false,
      "inputs": [
        {
          "indexed": false,
          "internalType": "address",
          "name": "oldOwner",
          "type": "address"
        }
      ],
      "name": "OwnerRemoved",
      "type": "event"
    },
    {
      "anonymous": false,
      "inputs": [
        {
          "indexed": true,
          "internalType": "address",
          "name": "from",
          "type": "address"
        },
        {
          "indexed": true,
          "internalType": "address",
          "name": "to",
          "type": "address"
        },
        {
          "indexed": false,
          "internalType": "uint256",
          "name": "value",
          "type": "uint256"
        }
      ],
      "name": "Transfer",
      "type": "event"
    },
    {
      "inputs": [],
      "name": "acceptOwnership",
      "outputs": [],
      "stateMutability": "nonpayable",
      "type": "function"
    },
    {
      "inputs": [
        {
          "internalType": "address",
          "name": "owner",
          "type": "address"
        },
        {
          "internalType": "address",
          "name": "spender",
          "type": "address"
        }
      ],
      "name": "allowance",
      "outputs": [
        {
          "internalType": "uint256",
          "name": "",
          "type": "uint256"
        }
      ],
      "stateMutability": "view",
      "type": "function"
    },
    {
      "inputs": [
        {
          "internalType": "address",
          "name": "spender",
          "type": "address"
        },
        {
          "internalType": "uint256",
          "name": "amount",
          "type": "uint256"
        }
      ],
      "name": "approve",
      "outputs": [
        {
          "internalType": "bool",
          "name": "",
          "type": "bool"
        }
      ],
      "stateMutability": "nonpayable",
      "type": "function"
    },
    {
      "inputs": [
        {
          "internalType": "address",
          "name": "account",
          "type": "address"
        }
      ],
      "name": "balanceOf",
      "outputs": [
        {
          "internalType": "uint256",
          "name": "",
          "type": "uint256"
        }
      ],
      "stateMutability": "view",
      "type": "function"
    },
    {
      "inputs": [],
      "name": "decimals",
      "outputs": [
        {
          "internalType": "uint8",
          "name": "",
          "type": "uint8"
        }
      ],
      "stateMutability": "view",
      "type": "function"
    },
    {
      "inputs": [
        {
          "internalType": "address",
          "name": "spender",
          "type": "address"
        },
        {
          "internalType": "uint256",
          "name": "subtractedValue",
          "type": "uint256"
        }
      ],
      "name": "decreaseAllowance",
      "outputs": [
        {
          "internalType": "bool",
          "name": "",
          "type": "bool"
        }
      ],
      "stateMutability": "nonpayable",
      "type": "function"
    },
    {
      "inputs": [],
      "name": "eth_usd_price",
      "outputs": [
        {
          "internalType": "uint256",
          "name": "",
          "type": "uint256"
        }
      ],
      "stateMutability": "pure",
      "type": "function"
    },
    {
      "inputs": [],
      "name": "genesis_supply",
      "outputs": [
        {
          "internalType": "uint256",
          "name": "",
          "type": "uint256"
        }
      ],
      "stateMutability": "view",
      "type": "function"
    },
    {
      "inputs": [],
      "name": "guild_pool_address",
      "outputs": [
        {
          "internalType": "address",
          "name": "",
          "type": "address"
        }
      ],
      "stateMutability": "view",
      "type": "function"
    },
    {
      "inputs": [
        {
          "internalType": "address",
          "name": "spender",
          "type": "address"
        },
        {
          "internalType": "uint256",
          "name": "addedValue",
          "type": "uint256"
        }
      ],
      "name": "increaseAllowance",
      "outputs": [
        {
          "internalType": "bool",
          "name": "",
          "type": "bool"
        }
      ],
      "stateMutability": "nonpayable",
      "type": "function"
    },
    {
      "inputs": [],
      "name": "name",
      "outputs": [
        {
          "internalType": "string",
          "name": "",
          "type": "string"
        }
      ],
      "stateMutability": "view",
      "type": "function"
    },
    {
      "inputs": [
        {
          "internalType": "address",
          "name": "_owner",
          "type": "address"
        }
      ],
      "name": "nominateNewOwner",
      "outputs": [],
      "stateMutability": "nonpayable",
      "type": "function"
    },
    {
      "inputs": [],
      "name": "nominatedOwner",
      "outputs": [
        {
          "internalType": "address",
          "name": "",
          "type": "address"
        }
      ],
      "stateMutability": "view",
      "type": "function"
    },
    {
      "inputs": [],
      "name": "owner",
      "outputs": [
        {
          "internalType": "address",
          "name": "",
          "type": "address"
        }
      ],
      "stateMutability": "view",
      "type": "function"
    },
    {
      "inputs": [],
      "name": "removeOwnership",
      "outputs": [],
      "stateMutability": "nonpayable",
      "type": "function"
    },
    {
      "inputs": [
        {
          "internalType": "address",
          "name": "_guild_pool_address",
          "type": "address"
        }
      ],
      "name": "setGuildPool",
      "outputs": [],
      "stateMutability": "nonpayable",
      "type": "function"
    },
    {
      "inputs": [],
      "name": "smartcontract_owner",
      "outputs": [
        {
          "internalType": "address",
          "name": "",
          "type": "address"
        }
      ],
      "stateMutability": "view",
      "type": "function"
    },
    {
      "inputs": [],
      "name": "symbol",
      "outputs": [
        {
          "internalType": "string",
          "name": "",
          "type": "string"
        }
      ],
      "stateMutability": "view",
      "type": "function"
    },
    {
      "inputs": [],
      "name": "totalSupply",
      "outputs": [
        {
          "internalType": "uint256",
          "name": "",
          "type": "uint256"
        }
      ],
      "stateMutability": "view",
      "type": "function"
    },
    {
      "inputs": [
        {
          "internalType": "address",
          "name": "to",
          "type": "address"
        },
        {
          "internalType": "uint256",
          "name": "amount",
          "type": "uint256"
        }
      ],
      "name": "transfer",
      "outputs": [
        {
          "internalType": "bool",
          "name": "",
          "type": "bool"
        }
      ],
      "stateMutability": "nonpayable",
      "type": "function"
    },
    {
      "inputs": [
        {
          "internalType": "address",
          "name": "from",
          "type": "address"
        },
        {
          "internalType": "address",
          "name": "to",
          "type": "address"
        },
        {
          "internalType": "uint256",
          "name": "amount",
          "type": "uint256"
        }
      ],
      "name": "transferFrom",
      "outputs": [
        {
          "internalType": "bool",
          "name": "",
          "type": "bool"
        }
      ],
      "stateMutability": "nonpayable",
      "type": "function"
    }
  ],
  "bytecode": "0x60806040523480156200001157600080fd5b506040516200284a3803806200284a83398181016040528101906200003791906200063a565b80848481600390816200004b91906200092b565b5080600490816200005d91906200092b565b505050600073ffffffffffffffffffffffffffffffffffffffff168173ffffffffffffffffffffffffffffffffffffffff1603620000d2576040517f08c379a0000000000000000000000000000000000000000000000000000000008152600401620000c99062000a73565b60405180910390fd5b80600560006101000a81548173ffffffffffffffffffffffffffffffffffffffff021916908373ffffffffffffffffffffffffffffffffffffffff1602179055507fb532073b38c83145e3e5135377a08bf9aab55bc0fd7c1179cd4fb995d2a5159c6000826040516200014792919062000aa6565b60405180910390a150600073ffffffffffffffffffffffffffffffffffffffff168173ffffffffffffffffffffffffffffffffffffffff1603620001c2576040517f08c379a0000000000000000000000000000000000000000000000000000000008152600401620001b99062000b23565b60405180910390fd5b6000820362000208576040517f08c379a0000000000000000000000000000000000000000000000000000000008152600401620001ff9062000b95565b60405180910390fd5b8160098190555062000245600860009054906101000a900473ffffffffffffffffffffffffffffffffffffffff166009546200029060201b60201c565b80600860006101000a81548173ffffffffffffffffffffffffffffffffffffffff021916908373ffffffffffffffffffffffffffffffffffffffff1602179055505050505062000cc1565b600073ffffffffffffffffffffffffffffffffffffffff168273ffffffffffffffffffffffffffffffffffffffff160362000302576040517f08c379a0000000000000000000000000000000000000000000000000000000008152600401620002f99062000c07565b60405180910390fd5b6200031660008383620003fd60201b60201c565b80600260008282546200032a919062000c58565b92505081905550806000808473ffffffffffffffffffffffffffffffffffffffff1673ffffffffffffffffffffffffffffffffffffffff168152602001908152602001600020600082825401925050819055508173ffffffffffffffffffffffffffffffffffffffff16600073ffffffffffffffffffffffffffffffffffffffff167fddf252ad1be2c89b69c2b068fc378daa952ba7f163c4a11628f55a4df523b3ef83604051620003dd919062000ca4565b60405180910390a3620003f9600083836200040260201b60201c565b5050565b505050565b505050565b6000604051905090565b600080fd5b600080fd5b600080fd5b600080fd5b6000601f19601f8301169050919050565b7f4e487b7100000000000000000000000000000000000000000000000000000000600052604160045260246000fd5b620004708262000425565b810181811067ffffffffffffffff8211171562000492576200049162000436565b5b80604052505050565b6000620004a762000407565b9050620004b5828262000465565b919050565b600067ffffffffffffffff821115620004d857620004d762000436565b5b620004e38262000425565b9050602081019050919050565b60005b8381101562000510578082015181840152602081019050620004f3565b60008484015250505050565b6000620005336200052d84620004ba565b6200049b565b90508281526020810184848401111562000552576200055162000420565b5b6200055f848285620004f0565b509392505050565b600082601f8301126200057f576200057e6200041b565b5b8151620005918482602086016200051c565b91505092915050565b6000819050919050565b620005af816200059a565b8114620005bb57600080fd5b50565b600081519050620005cf81620005a4565b92915050565b600073ffffffffffffffffffffffffffffffffffffffff82169050919050565b60006200060282620005d5565b9050919050565b6200061481620005f5565b81146200062057600080fd5b50565b600081519050620006348162000609565b92915050565b6000806000806080858703121562000657576200065662000411565b5b600085015167ffffffffffffffff81111562000678576200067762000416565b5b620006868782880162000567565b945050602085015167ffffffffffffffff811115620006aa57620006a962000416565b5b620006b88782880162000567565b9350506040620006cb87828801620005be565b9250506060620006de8782880162000623565b91505092959194509250565b600081519050919050565b7f4e487b7100000000000000000000000000000000000000000000000000000000600052602260045260246000fd5b600060028204905060018216806200073d57607f821691505b602082108103620007535762000752620006f5565b5b50919050565b60008190508160005260206000209050919050565b60006020601f8301049050919050565b600082821b905092915050565b600060088302620007bd7fffffffffffffffffffffffffffffffffffffffffffffffffffffffffffffffff826200077e565b620007c986836200077e565b95508019841693508086168417925050509392505050565b6000819050919050565b60006200080c6200080662000800846200059a565b620007e1565b6200059a565b9050919050565b6000819050919050565b6200082883620007eb565b62000840620008378262000813565b8484546200078b565b825550505050565b600090565b6200085762000848565b620008648184846200081d565b505050565b5b818110156200088c57620008806000826200084d565b6001810190506200086a565b5050565b601f821115620008db57620008a58162000759565b620008b0846200076e565b81016020851015620008c0578190505b620008d8620008cf856200076e565b83018262000869565b50505b505050565b600082821c905092915050565b60006200090060001984600802620008e0565b1980831691505092915050565b60006200091b8383620008ed565b9150826002028217905092915050565b6200093682620006ea565b67ffffffffffffffff81111562000952576200095162000436565b5b6200095e825462000724565b6200096b82828562000890565b600060209050601f831160018114620009a357600084156200098e578287015190505b6200099a85826200090d565b86555062000a0a565b601f198416620009b38662000759565b60005b82811015620009dd57848901518255600182019150602085019450602081019050620009b6565b86831015620009fd5784890151620009f9601f891682620008ed565b8355505b6001600288020188555050505b505050505050565b600082825260208201905092915050565b7f4f776e657220616464726573732063616e6e6f74206265203000000000000000600082015250565b600062000a5b60198362000a12565b915062000a688262000a23565b602082019050919050565b6000602082019050818103600083015262000a8e8162000a4c565b9050919050565b62000aa081620005f5565b82525050565b600060408201905062000abd600083018562000a95565b62000acc602083018462000a95565b9392505050565b7f5a65726f20616464726573732064657465637465640000000000000000000000600082015250565b600062000b0b60158362000a12565b915062000b188262000ad3565b602082019050919050565b6000602082019050818103600083015262000b3e8162000afc565b9050919050565b7f5a65726f2076616c756520697320646574656374656400000000000000000000600082015250565b600062000b7d60168362000a12565b915062000b8a8262000b45565b602082019050919050565b6000602082019050818103600083015262000bb08162000b6e565b9050919050565b7f45524332303a206d696e7420746f20746865207a65726f206164647265737300600082015250565b600062000bef601f8362000a12565b915062000bfc8262000bb7565b602082019050919050565b6000602082019050818103600083015262000c228162000be0565b9050919050565b7f4e487b7100000000000000000000000000000000000000000000000000000000600052601160045260246000fd5b600062000c65826200059a565b915062000c72836200059a565b925082820190508082111562000c8d5762000c8c62000c29565b5b92915050565b62000c9e816200059a565b82525050565b600060208201905062000cbb600083018462000c93565b92915050565b611b798062000cd16000396000f3fe608060405234801561001057600080fd5b50600436106101375760003560e01c806353a47bb7116100b8578063a457c2d71161007c578063a457c2d714610330578063a9059cbb14610360578063bf9e7a1214610390578063d99bb9f7146103ae578063dd62ed3e146103b8578063ea055438146103e857610137565b806353a47bb71461029c57806370a08231146102ba57806379ba5097146102ea5780638da5cb5b146102f457806395d89b411461031257610137565b806323b872dd116100ff57806323b872dd146101e2578063313ce56714610212578063345ba24b14610230578063395093511461024e57806351e238e31461027e57610137565b806306fdde031461013c578063095ea7b31461015a5780631627540c1461018a57806318160ddd146101a65780631d009696146101c4575b600080fd5b610144610404565b6040516101519190611273565b60405180910390f35b610174600480360381019061016f919061132e565b610496565b6040516101819190611389565b60405180910390f35b6101a4600480360381019061019f91906113a4565b6104b9565b005b6101ae6105c4565b6040516101bb91906113e0565b60405180910390f35b6101cc6105ce565b6040516101d9919061140a565b60405180910390f35b6101fc60048036038101906101f79190611425565b6105f4565b6040516102099190611389565b60405180910390f35b61021a610623565b6040516102279190611494565b60405180910390f35b61023861062c565b60405161024591906113e0565b60405180910390f35b6102686004803603810190610263919061132e565b610638565b6040516102759190611389565b60405180910390f35b61028661066f565b60405161029391906113e0565b60405180910390f35b6102a4610675565b6040516102b1919061140a565b60405180910390f35b6102d460048036038101906102cf91906113a4565b61069b565b6040516102e191906113e0565b60405180910390f35b6102f26106e3565b005b6102fc610897565b604051610309919061140a565b60405180910390f35b61031a6108bd565b6040516103279190611273565b60405180910390f35b61034a6004803603810190610345919061132e565b61094f565b6040516103579190611389565b60405180910390f35b61037a6004803603810190610375919061132e565b6109c6565b6040516103879190611389565b60405180910390f35b6103986109e9565b6040516103a5919061140a565b60405180910390f35b6103b6610a0f565b005b6103d260048036038101906103cd91906114af565b610b3c565b6040516103df91906113e0565b60405180910390f35b61040260048036038101906103fd91906113a4565b610bc3565b005b6060600380546104139061151e565b80601f016020809104026020016040519081016040528092919081815260200182805461043f9061151e565b801561048c5780601f106104615761010080835404028352916020019161048c565b820191906000526020600020905b81548152906001019060200180831161046f57829003601f168201915b5050505050905090565b6000806104a1610d06565b90506104ae818585610d0e565b600191505092915050565b600560009054906101000a900473ffffffffffffffffffffffffffffffffffffffff1673ffffffffffffffffffffffffffffffffffffffff163373ffffffffffffffffffffffffffffffffffffffff1614610549576040517f08c379a0000000000000000000000000000000000000000000000000000000008152600401610540906115c1565b60405180910390fd5b80600660006101000a81548173ffffffffffffffffffffffffffffffffffffffff021916908373ffffffffffffffffffffffffffffffffffffffff1602179055507f906a1c6bd7e3091ea86693dd029a831c19049ce77f1dce2ce0bab1cacbabce22816040516105b9919061140a565b60405180910390a150565b6000600254905090565b600760009054906101000a900473ffffffffffffffffffffffffffffffffffffffff1681565b6000806105ff610d06565b905061060c858285610ed7565b610617858585610f63565b60019150509392505050565b60006012905090565b6000634931a3f0905090565b600080610643610d06565b90506106648185856106558589610b3c565b61065f9190611610565b610d0e565b600191505092915050565b60095481565b600660009054906101000a900473ffffffffffffffffffffffffffffffffffffffff1681565b60008060008373ffffffffffffffffffffffffffffffffffffffff1673ffffffffffffffffffffffffffffffffffffffff168152602001908152602001600020549050919050565b600660009054906101000a900473ffffffffffffffffffffffffffffffffffffffff1673ffffffffffffffffffffffffffffffffffffffff163373ffffffffffffffffffffffffffffffffffffffff1614610773576040517f08c379a000000000000000000000000000000000000000000000000000000000815260040161076a906116b6565b60405180910390fd5b7fb532073b38c83145e3e5135377a08bf9aab55bc0fd7c1179cd4fb995d2a5159c600560009054906101000a900473ffffffffffffffffffffffffffffffffffffffff16600660009054906101000a900473ffffffffffffffffffffffffffffffffffffffff166040516107e89291906116d6565b60405180910390a1600660009054906101000a900473ffffffffffffffffffffffffffffffffffffffff16600560006101000a81548173ffffffffffffffffffffffffffffffffffffffff021916908373ffffffffffffffffffffffffffffffffffffffff1602179055506000600660006101000a81548173ffffffffffffffffffffffffffffffffffffffff021916908373ffffffffffffffffffffffffffffffffffffffff160217905550565b600560009054906101000a900473ffffffffffffffffffffffffffffffffffffffff1681565b6060600480546108cc9061151e565b80601f01602080910402602001604051908101604052809291908181526020018280546108f89061151e565b80156109455780601f1061091a57610100808354040283529160200191610945565b820191906000526020600020905b81548152906001019060200180831161092857829003601f168201915b5050505050905090565b60008061095a610d06565b905060006109688286610b3c565b9050838110156109ad576040517f08c379a00000000000000000000000000000000000000000000000000000000081526004016109a490611771565b60405180910390fd5b6109ba8286868403610d0e565b60019250505092915050565b6000806109d1610d06565b90506109de818585610f63565b600191505092915050565b600860009054906101000a900473ffffffffffffffffffffffffffffffffffffffff1681565b600560009054906101000a900473ffffffffffffffffffffffffffffffffffffffff1673ffffffffffffffffffffffffffffffffffffffff163373ffffffffffffffffffffffffffffffffffffffff1614610a9f576040517f08c379a0000000000000000000000000000000000000000000000000000000008152600401610a96906115c1565b60405180910390fd5b7f58619076adf5bb0943d100ef88d52d7c3fd691b19d3a9071b555b651fbf418da600560009054906101000a900473ffffffffffffffffffffffffffffffffffffffff16604051610af0919061140a565b60405180910390a16000600560006101000a81548173ffffffffffffffffffffffffffffffffffffffff021916908373ffffffffffffffffffffffffffffffffffffffff160217905550565b6000600160008473ffffffffffffffffffffffffffffffffffffffff1673ffffffffffffffffffffffffffffffffffffffff16815260200190815260200160002060008373ffffffffffffffffffffffffffffffffffffffff1673ffffffffffffffffffffffffffffffffffffffff16815260200190815260200160002054905092915050565b600560009054906101000a900473ffffffffffffffffffffffffffffffffffffffff1673ffffffffffffffffffffffffffffffffffffffff163373ffffffffffffffffffffffffffffffffffffffff1614610c53576040517f08c379a0000000000000000000000000000000000000000000000000000000008152600401610c4a906115c1565b60405180910390fd5b600073ffffffffffffffffffffffffffffffffffffffff168173ffffffffffffffffffffffffffffffffffffffff1603610cc2576040517f08c379a0000000000000000000000000000000000000000000000000000000008152600401610cb9906117dd565b60405180910390fd5b80600760006101000a81548173ffffffffffffffffffffffffffffffffffffffff021916908373ffffffffffffffffffffffffffffffffffffffff16021790555050565b600033905090565b600073ffffffffffffffffffffffffffffffffffffffff168373ffffffffffffffffffffffffffffffffffffffff1603610d7d576040517f08c379a0000000000000000000000000000000000000000000000000000000008152600401610d749061186f565b60405180910390fd5b600073ffffffffffffffffffffffffffffffffffffffff168273ffffffffffffffffffffffffffffffffffffffff1603610dec576040517f08c379a0000000000000000000000000000000000000000000000000000000008152600401610de390611901565b60405180910390fd5b80600160008573ffffffffffffffffffffffffffffffffffffffff1673ffffffffffffffffffffffffffffffffffffffff16815260200190815260200160002060008473ffffffffffffffffffffffffffffffffffffffff1673ffffffffffffffffffffffffffffffffffffffff168152602001908152602001600020819055508173ffffffffffffffffffffffffffffffffffffffff168373ffffffffffffffffffffffffffffffffffffffff167f8c5be1e5ebec7d5bd14f71427d1e84f3dd0314c0f7b2291e5b200ac8c7c3b92583604051610eca91906113e0565b60405180910390a3505050565b6000610ee38484610b3c565b90507fffffffffffffffffffffffffffffffffffffffffffffffffffffffffffffffff8114610f5d5781811015610f4f576040517f08c379a0000000000000000000000000000000000000000000000000000000008152600401610f469061196d565b60405180910390fd5b610f5c8484848403610d0e565b5b50505050565b600073ffffffffffffffffffffffffffffffffffffffff168373ffffffffffffffffffffffffffffffffffffffff1603610fd2576040517f08c379a0000000000000000000000000000000000000000000000000000000008152600401610fc9906119ff565b60405180910390fd5b600073ffffffffffffffffffffffffffffffffffffffff168273ffffffffffffffffffffffffffffffffffffffff1603611041576040517f08c379a000000000000000000000000000000000000000000000000000000000815260040161103890611a91565b60405180910390fd5b61104c8383836111d9565b60008060008573ffffffffffffffffffffffffffffffffffffffff1673ffffffffffffffffffffffffffffffffffffffff168152602001908152602001600020549050818110156110d2576040517f08c379a00000000000000000000000000000000000000000000000000000000081526004016110c990611b23565b60405180910390fd5b8181036000808673ffffffffffffffffffffffffffffffffffffffff1673ffffffffffffffffffffffffffffffffffffffff16815260200190815260200160002081905550816000808573ffffffffffffffffffffffffffffffffffffffff1673ffffffffffffffffffffffffffffffffffffffff168152602001908152602001600020600082825401925050819055508273ffffffffffffffffffffffffffffffffffffffff168473ffffffffffffffffffffffffffffffffffffffff167fddf252ad1be2c89b69c2b068fc378daa952ba7f163c4a11628f55a4df523b3ef846040516111c091906113e0565b60405180910390a36111d38484846111de565b50505050565b505050565b505050565b600081519050919050565b600082825260208201905092915050565b60005b8381101561121d578082015181840152602081019050611202565b60008484015250505050565b6000601f19601f8301169050919050565b6000611245826111e3565b61124f81856111ee565b935061125f8185602086016111ff565b61126881611229565b840191505092915050565b6000602082019050818103600083015261128d818461123a565b905092915050565b600080fd5b600073ffffffffffffffffffffffffffffffffffffffff82169050919050565b60006112c58261129a565b9050919050565b6112d5816112ba565b81146112e057600080fd5b50565b6000813590506112f2816112cc565b92915050565b6000819050919050565b61130b816112f8565b811461131657600080fd5b50565b60008135905061132881611302565b92915050565b6000806040838503121561134557611344611295565b5b6000611353858286016112e3565b925050602061136485828601611319565b9150509250929050565b60008115159050919050565b6113838161136e565b82525050565b600060208201905061139e600083018461137a565b92915050565b6000602082840312156113ba576113b9611295565b5b60006113c8848285016112e3565b91505092915050565b6113da816112f8565b82525050565b60006020820190506113f560008301846113d1565b92915050565b611404816112ba565b82525050565b600060208201905061141f60008301846113fb565b92915050565b60008060006060848603121561143e5761143d611295565b5b600061144c868287016112e3565b935050602061145d868287016112e3565b925050604061146e86828701611319565b9150509250925092565b600060ff82169050919050565b61148e81611478565b82525050565b60006020820190506114a96000830184611485565b92915050565b600080604083850312156114c6576114c5611295565b5b60006114d4858286016112e3565b92505060206114e5858286016112e3565b9150509250929050565b7f4e487b7100000000000000000000000000000000000000000000000000000000600052602260045260246000fd5b6000600282049050600182168061153657607f821691505b602082108103611549576115486114ef565b5b50919050565b7f4f6e6c792074686520636f6e7472616374206f776e6572206d6179207065726660008201527f6f726d207468697320616374696f6e0000000000000000000000000000000000602082015250565b60006115ab602f836111ee565b91506115b68261154f565b604082019050919050565b600060208201905081810360008301526115da8161159e565b9050919050565b7f4e487b7100000000000000000000000000000000000000000000000000000000600052601160045260246000fd5b600061161b826112f8565b9150611626836112f8565b925082820190508082111561163e5761163d6115e1565b5b92915050565b7f596f75206d757374206265206e6f6d696e61746564206265666f726520796f7560008201527f2063616e20616363657074206f776e6572736869700000000000000000000000602082015250565b60006116a06035836111ee565b91506116ab82611644565b604082019050919050565b600060208201905081810360008301526116cf81611693565b9050919050565b60006040820190506116eb60008301856113fb565b6116f860208301846113fb565b9392505050565b7f45524332303a2064656372656173656420616c6c6f77616e63652062656c6f7760008201527f207a65726f000000000000000000000000000000000000000000000000000000602082015250565b600061175b6025836111ee565b9150611766826116ff565b604082019050919050565b6000602082019050818103600083015261178a8161174e565b9050919050565b7f5a65726f20616464726573732064657465637465640000000000000000000000600082015250565b60006117c76015836111ee565b91506117d282611791565b602082019050919050565b600060208201905081810360008301526117f6816117ba565b9050919050565b7f45524332303a20617070726f76652066726f6d20746865207a65726f2061646460008201527f7265737300000000000000000000000000000000000000000000000000000000602082015250565b60006118596024836111ee565b9150611864826117fd565b604082019050919050565b600060208201905081810360008301526118888161184c565b9050919050565b7f45524332303a20617070726f766520746f20746865207a65726f20616464726560008201527f7373000000000000000000000000000000000000000000000000000000000000602082015250565b60006118eb6022836111ee565b91506118f68261188f565b604082019050919050565b6000602082019050818103600083015261191a816118de565b9050919050565b7f45524332303a20696e73756666696369656e7420616c6c6f77616e6365000000600082015250565b6000611957601d836111ee565b915061196282611921565b602082019050919050565b600060208201905081810360008301526119868161194a565b9050919050565b7f45524332303a207472616e736665722066726f6d20746865207a65726f20616460008201527f6472657373000000000000000000000000000000000000000000000000000000602082015250565b60006119e96025836111ee565b91506119f48261198d565b604082019050919050565b60006020820190508181036000830152611a18816119dc565b9050919050565b7f45524332303a207472616e7366657220746f20746865207a65726f206164647260008201527f6573730000000000000000000000000000000000000000000000000000000000602082015250565b6000611a7b6023836111ee565b9150611a8682611a1f565b604082019050919050565b60006020820190508181036000830152611aaa81611a6e565b9050919050565b7f45524332303a207472616e7366657220616d6f756e742065786365656473206260008201527f616c616e63650000000000000000000000000000000000000000000000000000602082015250565b6000611b0d6026836111ee565b9150611b1882611ab1565b604082019050919050565b60006020820190508181036000830152611b3c81611b00565b905091905056fea2646970667358221220f776e6e0651f26df8ab063d4579f9bc82ffd60065f9791b887ab29c7d9cd73e864736f6c63430008110033",
  "linkReferences": {},
  "deployedLinkReferences": {}
}