{
  "_format": "hh-sol-artifact-1",
  "contractName": "GuildToken",
  "sourceName": "contracts/GuildToken.sol",
  "abi": [
    {
      "inputs": [
        {
          "internalType": "string",
          "name": "_name",
          "type": "string"
        },
        {
          "internalType": "string",
          "name": "_symbol",
          "type": "string"
        },
        {
          "internalType": "uint256",
          "name": "_genesis_supply",
          "type": "uint256"
        },
        {
          "internalType": "address",
          "name": "_smartcontract_owner",
          "type": "address"
        }
      ],
      "stateMutability": "nonpayable",
      "type": "constructor"
    },
    {
      "anonymous": false,
      "inputs": [
        {
          "indexed": true,
          "internalType": "address",
          "name": "owner",
          "type": "address"
        },
        {
          "indexed": true,
          "internalType": "address",
          "name": "spender",
          "type": "address"
        },
        {
          "indexed": false,
          "internalType": "uint256",
          "name": "value",
          "type": "uint256"
        }
      ],
      "name": "Approval",
      "type": "event"
    },
    {
      "anonymous": false,
      "inputs": [
        {
          "indexed": false,
          "internalType": "address",
          "name": "oldOwner",
          "type": "address"
        },
        {
          "indexed": false,
          "internalType": "address",
          "name": "newOwner",
          "type": "address"
        }
      ],
      "name": "OwnerChanged",
      "type": "event"
    },
    {
      "anonymous": false,
      "inputs": [
        {
          "indexed": false,
          "internalType": "address",
          "name": "newOwner",
          "type": "address"
        }
      ],
      "name": "OwnerNominated",
      "type": "event"
    },
    {
      "anonymous": false,
      "inputs": [
        {
          "indexed": false,
          "internalType": "address",
          "name": "oldOwner",
          "type": "address"
        }
      ],
      "name": "OwnerRemoved",
      "type": "event"
    },
    {
      "anonymous": false,
      "inputs": [
        {
          "indexed": true,
          "internalType": "address",
          "name": "from",
          "type": "address"
        },
        {
          "indexed": true,
          "internalType": "address",
          "name": "to",
          "type": "address"
        },
        {
          "indexed": false,
          "internalType": "uint256",
          "name": "value",
          "type": "uint256"
        }
      ],
      "name": "Transfer",
      "type": "event"
    },
    {
      "inputs": [],
      "name": "acceptOwnership",
      "outputs": [],
      "stateMutability": "nonpayable",
      "type": "function"
    },
    {
      "inputs": [
        {
          "internalType": "address",
          "name": "owner",
          "type": "address"
        },
        {
          "internalType": "address",
          "name": "spender",
          "type": "address"
        }
      ],
      "name": "allowance",
      "outputs": [
        {
          "internalType": "uint256",
          "name": "",
          "type": "uint256"
        }
      ],
      "stateMutability": "view",
      "type": "function"
    },
    {
      "inputs": [
        {
          "internalType": "address",
          "name": "spender",
          "type": "address"
        },
        {
          "internalType": "uint256",
          "name": "amount",
          "type": "uint256"
        }
      ],
      "name": "approve",
      "outputs": [
        {
          "internalType": "bool",
          "name": "",
          "type": "bool"
        }
      ],
      "stateMutability": "nonpayable",
      "type": "function"
    },
    {
      "inputs": [
        {
          "internalType": "address",
          "name": "account",
          "type": "address"
        }
      ],
      "name": "balanceOf",
      "outputs": [
        {
          "internalType": "uint256",
          "name": "",
          "type": "uint256"
        }
      ],
      "stateMutability": "view",
      "type": "function"
    },
    {
      "inputs": [],
      "name": "decimals",
      "outputs": [
        {
          "internalType": "uint8",
          "name": "",
          "type": "uint8"
        }
      ],
      "stateMutability": "view",
      "type": "function"
    },
    {
      "inputs": [
        {
          "internalType": "address",
          "name": "spender",
          "type": "address"
        },
        {
          "internalType": "uint256",
          "name": "subtractedValue",
          "type": "uint256"
        }
      ],
      "name": "decreaseAllowance",
      "outputs": [
        {
          "internalType": "bool",
          "name": "",
          "type": "bool"
        }
      ],
      "stateMutability": "nonpayable",
      "type": "function"
    },
    {
      "inputs": [],
      "name": "eth_usd_price",
      "outputs": [
        {
          "internalType": "uint256",
          "name": "",
          "type": "uint256"
        }
      ],
      "stateMutability": "pure",
      "type": "function"
    },
    {
      "inputs": [],
      "name": "genesis_supply",
      "outputs": [
        {
          "internalType": "uint256",
          "name": "",
          "type": "uint256"
        }
      ],
      "stateMutability": "view",
      "type": "function"
    },
    {
      "inputs": [
        {
          "internalType": "uint256",
          "name": "amount",
          "type": "uint256"
        }
      ],
      "name": "guildPoolMint",
      "outputs": [],
      "stateMutability": "nonpayable",
      "type": "function"
    },
    {
      "inputs": [],
      "name": "guild_pool_address",
      "outputs": [
        {
          "internalType": "address",
          "name": "",
          "type": "address"
        }
      ],
      "stateMutability": "view",
      "type": "function"
    },
    {
      "inputs": [
        {
          "internalType": "address",
          "name": "spender",
          "type": "address"
        },
        {
          "internalType": "uint256",
          "name": "addedValue",
          "type": "uint256"
        }
      ],
      "name": "increaseAllowance",
      "outputs": [
        {
          "internalType": "bool",
          "name": "",
          "type": "bool"
        }
      ],
      "stateMutability": "nonpayable",
      "type": "function"
    },
    {
      "inputs": [],
      "name": "name",
      "outputs": [
        {
          "internalType": "string",
          "name": "",
          "type": "string"
        }
      ],
      "stateMutability": "view",
      "type": "function"
    },
    {
      "inputs": [
        {
          "internalType": "address",
          "name": "_owner",
          "type": "address"
        }
      ],
      "name": "nominateNewOwner",
      "outputs": [],
      "stateMutability": "nonpayable",
      "type": "function"
    },
    {
      "inputs": [],
      "name": "nominatedOwner",
      "outputs": [
        {
          "internalType": "address",
          "name": "",
          "type": "address"
        }
      ],
      "stateMutability": "view",
      "type": "function"
    },
    {
      "inputs": [],
      "name": "owner",
      "outputs": [
        {
          "internalType": "address",
          "name": "",
          "type": "address"
        }
      ],
      "stateMutability": "view",
      "type": "function"
    },
    {
      "inputs": [],
      "name": "removeOwnership",
      "outputs": [],
      "stateMutability": "nonpayable",
      "type": "function"
    },
    {
      "inputs": [
        {
          "internalType": "address",
          "name": "_guild_pool_address",
          "type": "address"
        }
      ],
      "name": "setGuildPool",
      "outputs": [],
      "stateMutability": "nonpayable",
      "type": "function"
    },
    {
      "inputs": [],
      "name": "smartcontract_owner",
      "outputs": [
        {
          "internalType": "address",
          "name": "",
          "type": "address"
        }
      ],
      "stateMutability": "view",
      "type": "function"
    },
    {
      "inputs": [],
      "name": "symbol",
      "outputs": [
        {
          "internalType": "string",
          "name": "",
          "type": "string"
        }
      ],
      "stateMutability": "view",
      "type": "function"
    },
    {
      "inputs": [],
      "name": "totalSupply",
      "outputs": [
        {
          "internalType": "uint256",
          "name": "",
          "type": "uint256"
        }
      ],
      "stateMutability": "view",
      "type": "function"
    },
    {
      "inputs": [
        {
          "internalType": "address",
          "name": "to",
          "type": "address"
        },
        {
          "internalType": "uint256",
          "name": "amount",
          "type": "uint256"
        }
      ],
      "name": "transfer",
      "outputs": [
        {
          "internalType": "bool",
          "name": "",
          "type": "bool"
        }
      ],
      "stateMutability": "nonpayable",
      "type": "function"
    },
    {
      "inputs": [
        {
          "internalType": "address",
          "name": "from",
          "type": "address"
        },
        {
          "internalType": "address",
          "name": "to",
          "type": "address"
        },
        {
          "internalType": "uint256",
          "name": "amount",
          "type": "uint256"
        }
      ],
      "name": "transferFrom",
      "outputs": [
        {
          "internalType": "bool",
          "name": "",
          "type": "bool"
        }
      ],
      "stateMutability": "nonpayable",
      "type": "function"
    }
  ],
  "bytecode": "0x60806040523480156200001157600080fd5b50604051620018db380380620018db83398101604081905262000034916200041c565b80848481600390805190602001906200004f929190620002c3565b50805162000065906004906020840190620002c3565b5050506001600160a01b038116620000c45760405162461bcd60e51b815260206004820152601960248201527f4f776e657220616464726573732063616e6e6f7420626520300000000000000060448201526064015b60405180910390fd5b600580546001600160a01b0319166001600160a01b038316908117909155604080516000815260208101929092527fb532073b38c83145e3e5135377a08bf9aab55bc0fd7c1179cd4fb995d2a5159c910160405180910390a1506001600160a01b038116620001765760405162461bcd60e51b815260206004820152601560248201527f5a65726f206164647265737320646574656374656400000000000000000000006044820152606401620000bb565b81620001c55760405162461bcd60e51b815260206004820152601660248201527f5a65726f2076616c7565206973206465746563746564000000000000000000006044820152606401620000bb565b6009829055620001d6818362000200565b600880546001600160a01b0319166001600160a01b03929092169190911790555062000525915050565b6001600160a01b038216620002585760405162461bcd60e51b815260206004820152601f60248201527f45524332303a206d696e7420746f20746865207a65726f2061646472657373006044820152606401620000bb565b80600260008282546200026c9190620004ad565b90915550506001600160a01b038216600081815260208181526040808320805486019055518481527fddf252ad1be2c89b69c2b068fc378daa952ba7f163c4a11628f55a4df523b3ef910160405180910390a35050565b828054620002d190620004d2565b90600052602060002090601f016020900481019282620002f5576000855562000340565b82601f106200031057805160ff191683800117855562000340565b8280016001018555821562000340579182015b828111156200034057825182559160200191906001019062000323565b506200034e92915062000352565b5090565b5b808211156200034e576000815560010162000353565b600082601f8301126200037a578081fd5b81516001600160401b03808211156200039757620003976200050f565b604051601f8301601f19908116603f01168101908282118183101715620003c257620003c26200050f565b81604052838152602092508683858801011115620003de578485fd5b8491505b83821015620004015785820183015181830184015290820190620003e2565b838211156200041257848385830101525b9695505050505050565b6000806000806080858703121562000432578384fd5b84516001600160401b038082111562000449578586fd5b620004578883890162000369565b955060208701519150808211156200046d578485fd5b506200047c8782880162000369565b60408701516060880151919550935090506001600160a01b0381168114620004a2578182fd5b939692955090935050565b60008219821115620004cd57634e487b7160e01b81526011600452602481fd5b500190565b600181811c90821680620004e757607f821691505b602082108114156200050957634e487b7160e01b600052602260045260246000fd5b50919050565b634e487b7160e01b600052604160045260246000fd5b6113a680620005356000396000f3fe608060405234801561001057600080fd5b50600436106101825760003560e01c806353a47bb7116100d8578063a457c2d71161008c578063d99bb9f711610066578063d99bb9f71461035b578063dd62ed3e14610363578063ea055438146103a957600080fd5b8063a457c2d714610315578063a9059cbb14610328578063bf9e7a121461033b57600080fd5b806379ba5097116100bd57806379ba5097146102e55780638da5cb5b146102ed57806395d89b411461030d57600080fd5b806353a47bb71461028f57806370a08231146102af57600080fd5b806323b872dd1161013a578063395093511161011457806339509351146102605780634e687b601461027357806351e238e31461028657600080fd5b806323b872dd14610234578063313ce56714610247578063345ba24b1461025657600080fd5b80631627540c1161016b5780631627540c146101c857806318160ddd146101dd5780631d009696146101ef57600080fd5b806306fdde0314610187578063095ea7b3146101a5575b600080fd5b61018f6103bc565b60405161019c919061126e565b60405180910390f35b6101b86101b336600461122d565b61044e565b604051901515815260200161019c565b6101db6101d636600461119f565b610466565b005b6002545b60405190815260200161019c565b60075461020f9073ffffffffffffffffffffffffffffffffffffffff1681565b60405173ffffffffffffffffffffffffffffffffffffffff909116815260200161019c565b6101b86102423660046111f2565b61058b565b6040516012815260200161019c565b634931a3f06101e1565b6101b861026e36600461122d565b6105af565b6101db610281366004611256565b6105fb565b6101e160095481565b60065461020f9073ffffffffffffffffffffffffffffffffffffffff1681565b6101e16102bd36600461119f565b73ffffffffffffffffffffffffffffffffffffffff1660009081526020819052604090205490565b6101db6106c8565b60055461020f9073ffffffffffffffffffffffffffffffffffffffff1681565b61018f610813565b6101b861032336600461122d565b610822565b6101b861033636600461122d565b6108f3565b60085461020f9073ffffffffffffffffffffffffffffffffffffffff1681565b6101db610901565b6101e16103713660046111c0565b73ffffffffffffffffffffffffffffffffffffffff918216600090815260016020908152604080832093909416825291909152205490565b6101db6103b736600461119f565b610a1f565b6060600380546103cb9061131c565b80601f01602080910402602001604051908101604052809291908181526020018280546103f79061131c565b80156104445780601f1061041957610100808354040283529160200191610444565b820191906000526020600020905b81548152906001019060200180831161042757829003601f168201915b5050505050905090565b60003361045c818585610b8a565b5060019392505050565b60055473ffffffffffffffffffffffffffffffffffffffff163314610512576040517f08c379a000000000000000000000000000000000000000000000000000000000815260206004820152602f60248201527f4f6e6c792074686520636f6e7472616374206f776e6572206d6179207065726660448201527f6f726d207468697320616374696f6e000000000000000000000000000000000060648201526084015b60405180910390fd5b600680547fffffffffffffffffffffffff00000000000000000000000000000000000000001673ffffffffffffffffffffffffffffffffffffffff83169081179091556040519081527f906a1c6bd7e3091ea86693dd029a831c19049ce77f1dce2ce0bab1cacbabce229060200160405180910390a150565b600033610599858285610d3d565b6105a4858585610e14565b506001949350505050565b33600081815260016020908152604080832073ffffffffffffffffffffffffffffffffffffffff8716845290915281205490919061045c90829086906105f69087906112df565b610b8a565b60075473ffffffffffffffffffffffffffffffffffffffff1633146106a2576040517f08c379a000000000000000000000000000000000000000000000000000000000815260206004820152602660248201527f4f6e6c792074686520706f6f6c2063616e206d696e7420616e64206275726e2060448201527f746f6b656e7300000000000000000000000000000000000000000000000000006064820152608401610509565b6007546106c59073ffffffffffffffffffffffffffffffffffffffff1682611083565b50565b60065473ffffffffffffffffffffffffffffffffffffffff16331461076f576040517f08c379a000000000000000000000000000000000000000000000000000000000815260206004820152603560248201527f596f75206d757374206265206e6f6d696e61746564206265666f726520796f7560448201527f2063616e20616363657074206f776e65727368697000000000000000000000006064820152608401610509565b6005546006546040805173ffffffffffffffffffffffffffffffffffffffff93841681529290911660208301527fb532073b38c83145e3e5135377a08bf9aab55bc0fd7c1179cd4fb995d2a5159c910160405180910390a160068054600580547fffffffffffffffffffffffff000000000000000000000000000000000000000090811673ffffffffffffffffffffffffffffffffffffffff841617909155169055565b6060600480546103cb9061131c565b33600081815260016020908152604080832073ffffffffffffffffffffffffffffffffffffffff87168452909152812054909190838110156108e6576040517f08c379a000000000000000000000000000000000000000000000000000000000815260206004820152602560248201527f45524332303a2064656372656173656420616c6c6f77616e63652062656c6f7760448201527f207a65726f0000000000000000000000000000000000000000000000000000006064820152608401610509565b6105a48286868403610b8a565b60003361045c818585610e14565b60055473ffffffffffffffffffffffffffffffffffffffff1633146109a8576040517f08c379a000000000000000000000000000000000000000000000000000000000815260206004820152602f60248201527f4f6e6c792074686520636f6e7472616374206f776e6572206d6179207065726660448201527f6f726d207468697320616374696f6e00000000000000000000000000000000006064820152608401610509565b60055460405173ffffffffffffffffffffffffffffffffffffffff90911681527f58619076adf5bb0943d100ef88d52d7c3fd691b19d3a9071b555b651fbf418da9060200160405180910390a1600580547fffffffffffffffffffffffff0000000000000000000000000000000000000000169055565b60055473ffffffffffffffffffffffffffffffffffffffff163314610ac6576040517f08c379a000000000000000000000000000000000000000000000000000000000815260206004820152602f60248201527f4f6e6c792074686520636f6e7472616374206f776e6572206d6179207065726660448201527f6f726d207468697320616374696f6e00000000000000000000000000000000006064820152608401610509565b73ffffffffffffffffffffffffffffffffffffffff8116610b43576040517f08c379a000000000000000000000000000000000000000000000000000000000815260206004820152601560248201527f5a65726f206164647265737320646574656374656400000000000000000000006044820152606401610509565b600780547fffffffffffffffffffffffff00000000000000000000000000000000000000001673ffffffffffffffffffffffffffffffffffffffff92909216919091179055565b73ffffffffffffffffffffffffffffffffffffffff8316610c2c576040517f08c379a0000000000000000000000000000000000000000000000000000000008152602060048201526024808201527f45524332303a20617070726f76652066726f6d20746865207a65726f2061646460448201527f72657373000000000000000000000000000000000000000000000000000000006064820152608401610509565b73ffffffffffffffffffffffffffffffffffffffff8216610ccf576040517f08c379a000000000000000000000000000000000000000000000000000000000815260206004820152602260248201527f45524332303a20617070726f766520746f20746865207a65726f20616464726560448201527f73730000000000000000000000000000000000000000000000000000000000006064820152608401610509565b73ffffffffffffffffffffffffffffffffffffffff83811660008181526001602090815260408083209487168084529482529182902085905590518481527f8c5be1e5ebec7d5bd14f71427d1e84f3dd0314c0f7b2291e5b200ac8c7c3b925910160405180910390a3505050565b73ffffffffffffffffffffffffffffffffffffffff8381166000908152600160209081526040808320938616835292905220547fffffffffffffffffffffffffffffffffffffffffffffffffffffffffffffffff8114610e0e5781811015610e01576040517f08c379a000000000000000000000000000000000000000000000000000000000815260206004820152601d60248201527f45524332303a20696e73756666696369656e7420616c6c6f77616e63650000006044820152606401610509565b610e0e8484848403610b8a565b50505050565b73ffffffffffffffffffffffffffffffffffffffff8316610eb7576040517f08c379a000000000000000000000000000000000000000000000000000000000815260206004820152602560248201527f45524332303a207472616e736665722066726f6d20746865207a65726f20616460448201527f64726573730000000000000000000000000000000000000000000000000000006064820152608401610509565b73ffffffffffffffffffffffffffffffffffffffff8216610f5a576040517f08c379a000000000000000000000000000000000000000000000000000000000815260206004820152602360248201527f45524332303a207472616e7366657220746f20746865207a65726f206164647260448201527f65737300000000000000000000000000000000000000000000000000000000006064820152608401610509565b73ffffffffffffffffffffffffffffffffffffffff831660009081526020819052604090205481811015611010576040517f08c379a000000000000000000000000000000000000000000000000000000000815260206004820152602660248201527f45524332303a207472616e7366657220616d6f756e742065786365656473206260448201527f616c616e636500000000000000000000000000000000000000000000000000006064820152608401610509565b73ffffffffffffffffffffffffffffffffffffffff848116600081815260208181526040808320878703905593871680835291849020805487019055925185815290927fddf252ad1be2c89b69c2b068fc378daa952ba7f163c4a11628f55a4df523b3ef910160405180910390a3610e0e565b73ffffffffffffffffffffffffffffffffffffffff8216611100576040517f08c379a000000000000000000000000000000000000000000000000000000000815260206004820152601f60248201527f45524332303a206d696e7420746f20746865207a65726f2061646472657373006044820152606401610509565b806002600082825461111291906112df565b909155505073ffffffffffffffffffffffffffffffffffffffff8216600081815260208181526040808320805486019055518481527fddf252ad1be2c89b69c2b068fc378daa952ba7f163c4a11628f55a4df523b3ef910160405180910390a35050565b803573ffffffffffffffffffffffffffffffffffffffff8116811461119a57600080fd5b919050565b6000602082840312156111b0578081fd5b6111b982611176565b9392505050565b600080604083850312156111d2578081fd5b6111db83611176565b91506111e960208401611176565b90509250929050565b600080600060608486031215611206578081fd5b61120f84611176565b925061121d60208501611176565b9150604084013590509250925092565b6000806040838503121561123f578182fd5b61124883611176565b946020939093013593505050565b600060208284031215611267578081fd5b5035919050565b6000602080835283518082850152825b8181101561129a5785810183015185820160400152820161127e565b818111156112ab5783604083870101525b50601f017fffffffffffffffffffffffffffffffffffffffffffffffffffffffffffffffe016929092016040019392505050565b60008219821115611317577f4e487b710000000000000000000000000000000000000000000000000000000081526011600452602481fd5b500190565b600181811c9082168061133057607f821691505b6020821081141561136a577f4e487b7100000000000000000000000000000000000000000000000000000000600052602260045260246000fd5b5091905056fea26469706673582212202e8f36f32c3e33d1e3e2588788b3abc2a27d610ac43ada773abbaab19ef7dd2364736f6c63430008040033",
  "linkReferences": {},
  "deployedLinkReferences": {}
}