{
  "_format": "hh-sol-artifact-1",
  "contractName": "GuildFreelancer",
  "sourceName": "contracts/GuildFreelance.sol",
  "abi": [
    {
      "inputs": [
        {
          "internalType": "address",
          "name": "_guild_token_address",
          "type": "address"
        },
        {
          "internalType": "address",
          "name": "_guild_pool_address",
          "type": "address"
        },
        {
          "internalType": "address",
          "name": "_WETH",
          "type": "address"
        },
        {
          "internalType": "uint256",
          "name": "_time_limit",
          "type": "uint256"
        },
        {
          "internalType": "address",
          "name": "_smartcontract_owner",
          "type": "address"
        }
      ],
      "stateMutability": "nonpayable",
      "type": "constructor"
    },
    {
      "inputs": [],
      "name": "WETH_address",
      "outputs": [
        {
          "internalType": "address",
          "name": "",
          "type": "address"
        }
      ],
      "stateMutability": "view",
      "type": "function"
    },
    {
      "inputs": [],
      "name": "creatorAddLiquidityETH",
      "outputs": [],
      "stateMutability": "payable",
      "type": "function"
    },
    {
      "inputs": [
        {
          "internalType": "uint256",
          "name": "amount",
          "type": "uint256"
        }
      ],
      "name": "creatorAddLiquidityTokens",
      "outputs": [],
      "stateMutability": "nonpayable",
      "type": "function"
    },
    {
      "inputs": [],
      "name": "guild_pool_address",
      "outputs": [
        {
          "internalType": "address",
          "name": "",
          "type": "address"
        }
      ],
      "stateMutability": "view",
      "type": "function"
    },
    {
      "inputs": [],
      "name": "guild_token_address",
      "outputs": [
        {
          "internalType": "address",
          "name": "",
          "type": "address"
        }
      ],
      "stateMutability": "view",
      "type": "function"
    },
    {
      "inputs": [
        {
          "internalType": "uint256",
          "name": "amount",
          "type": "uint256"
        }
      ],
      "name": "purchaseGuildToken",
      "outputs": [],
      "stateMutability": "payable",
      "type": "function"
    },
    {
      "inputs": [],
      "name": "smartcontract_owner",
      "outputs": [
        {
          "internalType": "address",
          "name": "",
          "type": "address"
        }
      ],
      "stateMutability": "view",
      "type": "function"
    },
    {
      "inputs": [],
      "name": "time_limit",
      "outputs": [
        {
          "internalType": "uint256",
          "name": "",
          "type": "uint256"
        }
      ],
      "stateMutability": "view",
      "type": "function"
    },
    {
      "stateMutability": "payable",
      "type": "receive"
    }
  ],
  "bytecode": "0x608060405234801561001057600080fd5b5060405162000e8338038062000e8383398101604081905261003191610168565b6001600160a01b0385161580159061005157506001600160a01b03841615155b801561006557506001600160a01b03811615155b801561007957506001600160a01b03831615155b801561008457508115155b6100d45760405162461bcd60e51b815260206004820152601560248201527f5a65726f20416464726573732064657465637465640000000000000000000000604482015260640160405180910390fd5b600580546001600160a01b039687166001600160a01b0319918216811790925560008054821690921790915560049290925560018054948616948316851790556006805483169094179093556003805492851692821683179055600780548216909217909155600280549290931691161790556101c5565b80516001600160a01b038116811461016357600080fd5b919050565b600080600080600060a0868803121561017f578081fd5b6101888661014c565b94506101966020870161014c565b93506101a46040870161014c565b9250606086015191506101b96080870161014c565b90509295509295909350565b610cae80620001d56000396000f3fe60806040526004361061007f5760003560e01c8063bf9e7a121161004e578063bf9e7a1214610190578063c5e871b8146101bd578063de476549146101e1578063f143806f146101e957600080fd5b80631d009696146100d95780632d460df1146101305780636972f39b1461014357806397070d361461016357600080fd5b366100d45760035473ffffffffffffffffffffffffffffffffffffffff1633146100d2577f4e487b7100000000000000000000000000000000000000000000000000000000600052600160045260246000fd5b005b600080fd5b3480156100e557600080fd5b506001546101069073ffffffffffffffffffffffffffffffffffffffff1681565b60405173ffffffffffffffffffffffffffffffffffffffff90911681526020015b60405180910390f35b6100d261013e366004610b8c565b610216565b34801561014f57600080fd5b506100d261015e366004610b8c565b61039e565b34801561016f57600080fd5b506003546101069073ffffffffffffffffffffffffffffffffffffffff1681565b34801561019c57600080fd5b506002546101069073ffffffffffffffffffffffffffffffffffffffff1681565b3480156101c957600080fd5b506101d360045481565b604051908152602001610127565b6100d2610560565b3480156101f557600080fd5b506000546101069073ffffffffffffffffffffffffffffffffffffffff1681565b80610282576040517f08c379a000000000000000000000000000000000000000000000000000000000815260206004820152601360248201527f5a65726f2076616c75652064657465637465640000000000000000000000000060448201526064015b60405180910390fd5b634931a3f06000610291610859565b9050600061029f8334610c16565b9050836102ac8383610bdd565b1015610314576040517f08c379a000000000000000000000000000000000000000000000000000000000815260206004820152601860248201527f4755494c443a494e53554646494349454e545f494e50555400000000000000006044820152606401610279565b6005546040517f4e687b600000000000000000000000000000000000000000000000000000000081526004810186905273ffffffffffffffffffffffffffffffffffffffff90911690634e687b6090602401600060405180830381600087803b15801561038057600080fd5b505af1158015610394573d6000803e3d6000fd5b5050505050505050565b60025473ffffffffffffffffffffffffffffffffffffffff163314610445576040517f08c379a000000000000000000000000000000000000000000000000000000000815260206004820152603660248201527f4f6e6c792074686520736d61727420636f6e7472616374206f776e6572206d6160448201527f792061636365737320746869732066756e6374696f6e000000000000000000006064820152608401610279565b600081116104af576040517f08c379a000000000000000000000000000000000000000000000000000000000815260206004820152601b60248201527f506c6561736520656e74657220612076616c696420616d6f756e7400000000006044820152606401610279565b6000546001546104db9173ffffffffffffffffffffffffffffffffffffffff9081169133911684610955565b600660009054906101000a900473ffffffffffffffffffffffffffffffffffffffff1673ffffffffffffffffffffffffffffffffffffffff1663fff6cae96040518163ffffffff1660e01b8152600401600060405180830381600087803b15801561054557600080fd5b505af1158015610559573d6000803e3d6000fd5b5050505050565b60025473ffffffffffffffffffffffffffffffffffffffff163314610607576040517f08c379a000000000000000000000000000000000000000000000000000000000815260206004820152603660248201527f4f6e6c792074686520736d61727420636f6e7472616374206f776e6572206d6160448201527f792061636365737320746869732066756e6374696f6e000000000000000000006064820152608401610279565b60003411610671576040517f08c379a000000000000000000000000000000000000000000000000000000000815260206004820152601b60248201527f506c6561736520656e74657220612076616c696420616d6f756e7400000000006044820152606401610279565b600760009054906101000a900473ffffffffffffffffffffffffffffffffffffffff1673ffffffffffffffffffffffffffffffffffffffff1663d0e30db0346040518263ffffffff1660e01b81526004016000604051808303818588803b1580156106db57600080fd5b505af11580156106ef573d6000803e3d6000fd5b50506007546001546040517fa9059cbb00000000000000000000000000000000000000000000000000000000815273ffffffffffffffffffffffffffffffffffffffff91821660048201523460248201529116935063a9059cbb92506044019050602060405180830381600087803b15801561076a57600080fd5b505af115801561077e573d6000803e3d6000fd5b505050506040513d601f19601f820116820180604052508101906107a29190610b17565b6107d5577f4e487b7100000000000000000000000000000000000000000000000000000000600052600160045260246000fd5b600660009054906101000a900473ffffffffffffffffffffffffffffffffffffffff1673ffffffffffffffffffffffffffffffffffffffff1663fff6cae96040518163ffffffff1660e01b8152600401600060405180830381600087803b15801561083f57600080fd5b505af1158015610853573d6000803e3d6000fd5b50505050565b600654604080517f0902f1ac000000000000000000000000000000000000000000000000000000008152905160009283928392634931a3f09273ffffffffffffffffffffffffffffffffffffffff1691630902f1ac916004808301926060929190829003018186803b1580156108ce57600080fd5b505afa1580156108e2573d6000803e3d6000fd5b505050506040513d601f19601f820116820180604052508101906109069190610b3e565b506dffffffffffffffffffffffffffff9182169450169150821580610929575081155b15610938576001935050505090565b816109438183610c16565b61094d9190610bdd565b935050505090565b6040805173ffffffffffffffffffffffffffffffffffffffff85811660248301528481166044830152606480830185905283518084039091018152608490920183526020820180517bffffffffffffffffffffffffffffffffffffffffffffffffffffffff167f23b872dd0000000000000000000000000000000000000000000000000000000017905291516000928392908816916109f49190610ba4565b6000604051808303816000865af19150503d8060008114610a31576040519150601f19603f3d011682016040523d82523d6000602084013e610a36565b606091505b5091509150818015610a60575080511580610a60575080806020019051810190610a609190610b17565b610aec576040517f08c379a000000000000000000000000000000000000000000000000000000000815260206004820152603160248201527f5472616e7366657248656c7065723a3a7472616e7366657246726f6d3a20747260448201527f616e7366657246726f6d206661696c65640000000000000000000000000000006064820152608401610279565b505050505050565b80516dffffffffffffffffffffffffffff81168114610b1257600080fd5b919050565b600060208284031215610b28578081fd5b81518015158114610b37578182fd5b9392505050565b600080600060608486031215610b52578182fd5b610b5b84610af4565b9250610b6960208501610af4565b9150604084015163ffffffff81168114610b81578182fd5b809150509250925092565b600060208284031215610b9d578081fd5b5035919050565b60008251815b81811015610bc45760208186018101518583015201610baa565b81811115610bd25782828501525b509190910192915050565b600082610c11577f4e487b710000000000000000000000000000000000000000000000000000000081526012600452602481fd5b500490565b6000817fffffffffffffffffffffffffffffffffffffffffffffffffffffffffffffffff0483118215151615610c73577f4e487b710000000000000000000000000000000000000000000000000000000081526011600452602481fd5b50029056fea2646970667358221220e910eaca87d97a7ee9372f60e570f9a63f1800853a132af45ef08355f59a2fb664736f6c63430008040033",
  "linkReferences": {},
  "deployedLinkReferences": {}
}