{
  "_format": "hh-sol-artifact-1",
  "contractName": "GuildFreelancer",
  "sourceName": "contracts/GuildFreelance.sol",
  "abi": [
    {
      "inputs": [
        {
          "internalType": "address",
          "name": "_guild_token_address",
          "type": "address"
        },
        {
          "internalType": "uint256",
          "name": "_time_limit",
          "type": "uint256"
        }
      ],
      "stateMutability": "nonpayable",
      "type": "constructor"
    },
    {
      "inputs": [],
      "name": "guild_token_address",
      "outputs": [
        {
          "internalType": "address",
          "name": "",
          "type": "address"
        }
      ],
      "stateMutability": "view",
      "type": "function"
    },
    {
      "inputs": [
        {
          "internalType": "uint256",
          "name": "amount",
          "type": "uint256"
        }
      ],
      "name": "purchaseGuildToken",
      "outputs": [],
      "stateMutability": "payable",
      "type": "function"
    },
    {
      "inputs": [],
      "name": "time_limit",
      "outputs": [
        {
          "internalType": "uint256",
          "name": "",
          "type": "uint256"
        }
      ],
      "stateMutability": "view",
      "type": "function"
    }
  ],
  "bytecode": "0x608060405234801561001057600080fd5b5060405161055f38038061055f833981810160405281019061003291906101d7565b600073ffffffffffffffffffffffffffffffffffffffff168273ffffffffffffffffffffffffffffffffffffffff1614158015610070575060008114155b6100af576040517f08c379a00000000000000000000000000000000000000000000000000000000081526004016100a690610274565b60405180910390fd5b81600260006101000a81548173ffffffffffffffffffffffffffffffffffffffff021916908373ffffffffffffffffffffffffffffffffffffffff160217905550816000806101000a81548173ffffffffffffffffffffffffffffffffffffffff021916908373ffffffffffffffffffffffffffffffffffffffff160217905550806001819055505050610294565b600080fd5b600073ffffffffffffffffffffffffffffffffffffffff82169050919050565b600061016e82610143565b9050919050565b61017e81610163565b811461018957600080fd5b50565b60008151905061019b81610175565b92915050565b6000819050919050565b6101b4816101a1565b81146101bf57600080fd5b50565b6000815190506101d1816101ab565b92915050565b600080604083850312156101ee576101ed61013e565b5b60006101fc8582860161018c565b925050602061020d858286016101c2565b9150509250929050565b600082825260208201905092915050565b7f5a65726f20416464726573732064657465637465640000000000000000000000600082015250565b600061025e601583610217565b915061026982610228565b602082019050919050565b6000602082019050818103600083015261028d81610251565b9050919050565b6102bc806102a36000396000f3fe6080604052600436106100345760003560e01c80632d460df114610039578063c5e871b814610055578063f143806f14610080575b600080fd5b610053600480360381019061004e9190610156565b6100ab565b005b34801561006157600080fd5b5061006a6100f1565b6040516100779190610192565b60405180910390f35b34801561008c57600080fd5b506100956100f7565b6040516100a291906101ee565b60405180910390f35b600081036100ee576040517f08c379a00000000000000000000000000000000000000000000000000000000081526004016100e590610266565b60405180910390fd5b50565b60015481565b60008054906101000a900473ffffffffffffffffffffffffffffffffffffffff1681565b600080fd5b6000819050919050565b61013381610120565b811461013e57600080fd5b50565b6000813590506101508161012a565b92915050565b60006020828403121561016c5761016b61011b565b5b600061017a84828501610141565b91505092915050565b61018c81610120565b82525050565b60006020820190506101a76000830184610183565b92915050565b600073ffffffffffffffffffffffffffffffffffffffff82169050919050565b60006101d8826101ad565b9050919050565b6101e8816101cd565b82525050565b600060208201905061020360008301846101df565b92915050565b600082825260208201905092915050565b7f5a65726f2076616c756520646574656374656400000000000000000000000000600082015250565b6000610250601383610209565b915061025b8261021a565b602082019050919050565b6000602082019050818103600083015261027f81610243565b905091905056fea26469706673582212206e82adcbea9f74d7f8a89bcc41379227b27fc0fa870e126b27a307b123eb527e64736f6c63430008110033",
  "linkReferences": {},
  "deployedLinkReferences": {}
}