{
  "_format": "hh-sol-artifact-1",
  "contractName": "GuildLiquidityPool",
  "sourceName": "contracts/GuildLiquidityPool.sol",
  "abi": [
    {
      "inputs": [
        {
          "internalType": "address",
          "name": "_smartcontract_owner",
          "type": "address"
        }
      ],
      "stateMutability": "nonpayable",
      "type": "constructor"
    },
    {
      "anonymous": false,
      "inputs": [
        {
          "indexed": true,
          "internalType": "address",
          "name": "sender",
          "type": "address"
        },
        {
          "indexed": false,
          "internalType": "uint256",
          "name": "amount0",
          "type": "uint256"
        },
        {
          "indexed": false,
          "internalType": "uint256",
          "name": "amount1",
          "type": "uint256"
        },
        {
          "indexed": true,
          "internalType": "address",
          "name": "to",
          "type": "address"
        }
      ],
      "name": "Burn",
      "type": "event"
    },
    {
      "anonymous": false,
      "inputs": [
        {
          "indexed": true,
          "internalType": "address",
          "name": "sender",
          "type": "address"
        },
        {
          "indexed": false,
          "internalType": "uint256",
          "name": "amount0",
          "type": "uint256"
        },
        {
          "indexed": false,
          "internalType": "uint256",
          "name": "amount1",
          "type": "uint256"
        }
      ],
      "name": "Mint",
      "type": "event"
    },
    {
      "anonymous": false,
      "inputs": [
        {
          "indexed": false,
          "internalType": "address",
          "name": "sender",
          "type": "address"
        },
        {
          "indexed": false,
          "internalType": "uint256",
          "name": "amount0",
          "type": "uint256"
        },
        {
          "indexed": false,
          "internalType": "uint256",
          "name": "amount1",
          "type": "uint256"
        }
      ],
      "name": "ProvideLiquidity",
      "type": "event"
    },
    {
      "anonymous": false,
      "inputs": [
        {
          "indexed": false,
          "internalType": "address",
          "name": "sender",
          "type": "address"
        },
        {
          "indexed": false,
          "internalType": "uint256",
          "name": "amount1",
          "type": "uint256"
        }
      ],
      "name": "ProvideLiquidity2",
      "type": "event"
    },
    {
      "anonymous": false,
      "inputs": [
        {
          "indexed": true,
          "internalType": "address",
          "name": "sender",
          "type": "address"
        },
        {
          "indexed": false,
          "internalType": "uint256",
          "name": "amount0In",
          "type": "uint256"
        },
        {
          "indexed": false,
          "internalType": "uint256",
          "name": "amount1In",
          "type": "uint256"
        },
        {
          "indexed": false,
          "internalType": "uint256",
          "name": "amount0Out",
          "type": "uint256"
        },
        {
          "indexed": false,
          "internalType": "uint256",
          "name": "amount1Out",
          "type": "uint256"
        },
        {
          "indexed": true,
          "internalType": "address",
          "name": "to",
          "type": "address"
        }
      ],
      "name": "Swap",
      "type": "event"
    },
    {
      "anonymous": false,
      "inputs": [
        {
          "indexed": false,
          "internalType": "uint112",
          "name": "reserve0",
          "type": "uint112"
        },
        {
          "indexed": false,
          "internalType": "uint112",
          "name": "reserve1",
          "type": "uint112"
        }
      ],
      "name": "Sync",
      "type": "event"
    },
    {
      "inputs": [],
      "name": "PERMIT_TYPEHASH",
      "outputs": [
        {
          "internalType": "bytes32",
          "name": "",
          "type": "bytes32"
        }
      ],
      "stateMutability": "view",
      "type": "function"
    },
    {
      "inputs": [],
      "name": "collatDollarBalance",
      "outputs": [
        {
          "internalType": "uint256",
          "name": "",
          "type": "uint256"
        }
      ],
      "stateMutability": "view",
      "type": "function"
    },
    {
      "inputs": [],
      "name": "getReserves",
      "outputs": [
        {
          "internalType": "uint112",
          "name": "_reserve0",
          "type": "uint112"
        },
        {
          "internalType": "uint112",
          "name": "_reserve1",
          "type": "uint112"
        },
        {
          "internalType": "uint32",
          "name": "_blockTimestampLast",
          "type": "uint32"
        }
      ],
      "stateMutability": "view",
      "type": "function"
    },
    {
      "inputs": [
        {
          "internalType": "address",
          "name": "_guild_token",
          "type": "address"
        },
        {
          "internalType": "address",
          "name": "_weth_address",
          "type": "address"
        }
      ],
      "name": "initialize",
      "outputs": [],
      "stateMutability": "nonpayable",
      "type": "function"
    },
    {
      "inputs": [],
      "name": "kLast",
      "outputs": [
        {
          "internalType": "uint256",
          "name": "",
          "type": "uint256"
        }
      ],
      "stateMutability": "view",
      "type": "function"
    },
    {
      "inputs": [
        {
          "internalType": "address",
          "name": "",
          "type": "address"
        }
      ],
      "name": "nonces",
      "outputs": [
        {
          "internalType": "uint256",
          "name": "",
          "type": "uint256"
        }
      ],
      "stateMutability": "view",
      "type": "function"
    },
    {
      "inputs": [],
      "name": "price0CumulativeLast",
      "outputs": [
        {
          "internalType": "uint256",
          "name": "",
          "type": "uint256"
        }
      ],
      "stateMutability": "view",
      "type": "function"
    },
    {
      "inputs": [],
      "name": "price1CumulativeLast",
      "outputs": [
        {
          "internalType": "uint256",
          "name": "",
          "type": "uint256"
        }
      ],
      "stateMutability": "view",
      "type": "function"
    },
    {
      "inputs": [
        {
          "internalType": "address",
          "name": "_smartcontract_owner",
          "type": "address"
        }
      ],
      "name": "setSmartContractOwner",
      "outputs": [],
      "stateMutability": "nonpayable",
      "type": "function"
    },
    {
      "inputs": [
        {
          "internalType": "address",
          "name": "to",
          "type": "address"
        }
      ],
      "name": "skim",
      "outputs": [],
      "stateMutability": "nonpayable",
      "type": "function"
    },
    {
      "inputs": [],
      "name": "smartcontract_owner",
      "outputs": [
        {
          "internalType": "address",
          "name": "",
          "type": "address"
        }
      ],
      "stateMutability": "view",
      "type": "function"
    },
    {
      "inputs": [
        {
          "internalType": "uint256",
          "name": "amount0Out",
          "type": "uint256"
        },
        {
          "internalType": "uint256",
          "name": "amount1Out",
          "type": "uint256"
        },
        {
          "internalType": "address",
          "name": "to",
          "type": "address"
        }
      ],
      "name": "swap",
      "outputs": [],
      "stateMutability": "nonpayable",
      "type": "function"
    },
    {
      "inputs": [],
      "name": "sync",
      "outputs": [],
      "stateMutability": "nonpayable",
      "type": "function"
    }
  ],
  "bytecode": "0x608060405234801561001057600080fd5b50604051611a34380380611a3483398101604081905261002f916100b3565b60016033556001600160a01b03811661008e5760405162461bcd60e51b815260206004820152601560248201527f5a65726f20616464726573732064657465637465640000000000000000000000604482015260640160405180910390fd5b603780546001600160a01b0319166001600160a01b03929092169190911790556100e1565b6000602082840312156100c4578081fd5b81516001600160a01b03811681146100da578182fd5b9392505050565b611944806100f06000396000f3fe608060405234801561001057600080fd5b50600436106100df5760003560e01c80636d9a640a1161008c57806398ee20ab1161006657806398ee20ab146101ef578063bc25cf7714610202578063bf9e7a1214610215578063fff6cae91461025a57600080fd5b80636d9a640a146101b35780637464fc3d146101c65780637ecebe00146101cf57600080fd5b8063485cc955116100bd578063485cc9551461018c5780635909c0d5146101a15780635a3d5493146101aa57600080fd5b80630902f1ac146100e457806317284c941461014f57806330adf81f14610165575b600080fd5b603954604080516dffffffffffffffffffffffffffff80841682526e01000000000000000000000000000084041660208201527c010000000000000000000000000000000000000000000000000000000090920463ffffffff16908201526060015b60405180910390f35b610157610262565b604051908152602001610146565b6101577f6e71edae12b1b97f4d1f60370fef10105fa2faae0126114a169c64845d6126c981565b61019f61019a3660046116a1565b6103c2565b005b610157603a5481565b610157603b5481565b61019f6101c136600461170b565b610648565b610157603c5481565b6101576101dd366004611687565b60346020526000908152604090205481565b61019f6101fd366004611687565b610c7f565b61019f610210366004611687565b610df6565b6037546102359073ffffffffffffffffffffffffffffffffffffffff1681565b60405173ffffffffffffffffffffffffffffffffffffffff9091168152602001610146565b61019f610f60565b6000620f4240603860009054906101000a900473ffffffffffffffffffffffffffffffffffffffff1673ffffffffffffffffffffffffffffffffffffffff1663345ba24b6040518163ffffffff1660e01b815260040160206040518083038186803b1580156102d057600080fd5b505afa1580156102e4573d6000803e3d6000fd5b505050506040513d601f19601f8201168201806040525081019061030891906116f3565b6036546040517f70a0823100000000000000000000000000000000000000000000000000000000815230600482015273ffffffffffffffffffffffffffffffffffffffff909116906370a082319060240160206040518083038186803b15801561037157600080fd5b505afa158015610385573d6000803e3d6000fd5b505050506040513d601f19601f820116820180604052508101906103a991906116f3565b6103b39190611823565b6103bd91906117cb565b905090565b600054610100900460ff16806103d75750303b155b806103e5575060005460ff16155b610476576040517f08c379a000000000000000000000000000000000000000000000000000000000815260206004820152602e60248201527f436f6e747261637420696e7374616e63652068617320616c726561647920626560448201527f656e20696e697469616c697a656400000000000000000000000000000000000060648201526084015b60405180910390fd5b600054610100900460ff161580156104b557600080547fffffffffffffffffffffffffffffffffffffffffffffffffffffffffffff0000166101011790555b60375473ffffffffffffffffffffffffffffffffffffffff163314610536576040517f08c379a000000000000000000000000000000000000000000000000000000000815260206004820152601560248201527f4755494c442f574554483a20464f5242494444454e0000000000000000000000604482015260640161046d565b73ffffffffffffffffffffffffffffffffffffffff83166105b3576040517f08c379a000000000000000000000000000000000000000000000000000000000815260206004820152601560248201527f5a65726f20616464726573732064657465637465640000000000000000000000604482015260640161046d565b603580547fffffffffffffffffffffffff000000000000000000000000000000000000000090811673ffffffffffffffffffffffffffffffffffffffff868116918217909355603880548316909117905560368054909116918416919091179055801561064357600080547fffffffffffffffffffffffffffffffffffffffffffffffffffffffffffff00ff1690555b505050565b61065061111a565b600083118061065f5750600082115b6106eb576040517f08c379a000000000000000000000000000000000000000000000000000000000815260206004820152602360248201527f585344574554483a20494e53554646494349454e545f4f55545055545f414d4f60448201527f554e540000000000000000000000000000000000000000000000000000000000606482015260840161046d565b6000806107476039546dffffffffffffffffffffffffffff808216926e01000000000000000000000000000083049091169163ffffffff7c01000000000000000000000000000000000000000000000000000000009091041690565b5091509150816dffffffffffffffffffffffffffff168510801561077a5750806dffffffffffffffffffffffffffff1684105b610806576040517f08c379a000000000000000000000000000000000000000000000000000000000815260206004820152602160248201527f4755494c44574554483a20494e53554646494349454e545f4c4951554944495460448201527f5900000000000000000000000000000000000000000000000000000000000000606482015260840161046d565b603554603654600091829173ffffffffffffffffffffffffffffffffffffffff91821691908116908716821480159061086b57508073ffffffffffffffffffffffffffffffffffffffff168773ffffffffffffffffffffffffffffffffffffffff1614155b6108d1576040517f08c379a000000000000000000000000000000000000000000000000000000000815260206004820152601560248201527f4755494c44574554483a20494e56414c49445f544f0000000000000000000000604482015260640161046d565b88156108e2576108e282888b61118e565b87156108f3576108f381888a61118e565b6040517f70a0823100000000000000000000000000000000000000000000000000000000815230600482015273ffffffffffffffffffffffffffffffffffffffff8316906370a082319060240160206040518083038186803b15801561095857600080fd5b505afa15801561096c573d6000803e3d6000fd5b505050506040513d601f19601f8201168201806040525081019061099091906116f3565b6040517f70a0823100000000000000000000000000000000000000000000000000000000815230600482015290945073ffffffffffffffffffffffffffffffffffffffff8216906370a082319060240160206040518083038186803b1580156109f857600080fd5b505afa158015610a0c573d6000803e3d6000fd5b505050506040513d601f19601f82011682018060405250810190610a3091906116f3565b92505050600087856dffffffffffffffffffffffffffff16610a529190611860565b8311610a5f576000610a83565b610a79886dffffffffffffffffffffffffffff8716611860565b610a839084611860565b90506000610aa1886dffffffffffffffffffffffffffff8716611860565b8311610aae576000610ad2565b610ac8886dffffffffffffffffffffffffffff8716611860565b610ad29084611860565b90506000821180610ae35750600081115b610b6e576040517f08c379a0000000000000000000000000000000000000000000000000000000008152602060048201526024808201527f4755494c44574554483a20494e53554646494349454e545f494e5055545f414d60448201527f4f554e5400000000000000000000000000000000000000000000000000000000606482015260840161046d565b8383610b8d6dffffffffffffffffffffffffffff808916908a16611823565b610b978284611823565b1015610bff576040517f08c379a000000000000000000000000000000000000000000000000000000000815260206004820152600c60248201527f4755494c44574554483a204b0000000000000000000000000000000000000000604482015260640161046d565b5050610c0d8484888861132e565b60408051838152602081018390529081018a90526060810189905273ffffffffffffffffffffffffffffffffffffffff88169033907fd78ad95fa46c994b6551d0da85fc275fe613ce37657fb8d5e3d130840159d8229060800160405180910390a35050505050506106436001603355565b610c8761111a565b60375473ffffffffffffffffffffffffffffffffffffffff163314610d2e576040517f08c379a000000000000000000000000000000000000000000000000000000000815260206004820152603660248201527f4f6e6c792074686520736d61727420636f6e7472616374206f776e657220636160448201527f6e2061636365737320746869732066756e6374696f6e00000000000000000000606482015260840161046d565b73ffffffffffffffffffffffffffffffffffffffff8116610dab576040517f08c379a000000000000000000000000000000000000000000000000000000000815260206004820152601560248201527f5a65726f20616464726573732064657465637465640000000000000000000000604482015260640161046d565b603780547fffffffffffffffffffffffff00000000000000000000000000000000000000001673ffffffffffffffffffffffffffffffffffffffff8316179055600160335550565b50565b610dfe61111a565b6035546036546039546040517f70a0823100000000000000000000000000000000000000000000000000000000815230600482015273ffffffffffffffffffffffffffffffffffffffff9384169390921691610ed491849186916dffffffffffffffffffffffffffff169083906370a08231906024015b60206040518083038186803b158015610e8d57600080fd5b505afa158015610ea1573d6000803e3d6000fd5b505050506040513d601f19601f82011682018060405250810190610ec591906116f3565b610ecf9190611860565b61118e565b6039546040517f70a08231000000000000000000000000000000000000000000000000000000008152306004820152610f5491839186916e01000000000000000000000000000090046dffffffffffffffffffffffffffff169073ffffffffffffffffffffffffffffffffffffffff8416906370a0823190602401610e75565b5050610df36001603355565b610f6861111a565b6035546040517f70a082310000000000000000000000000000000000000000000000000000000081523060048201526110da9173ffffffffffffffffffffffffffffffffffffffff16906370a082319060240160206040518083038186803b158015610fd357600080fd5b505afa158015610fe7573d6000803e3d6000fd5b505050506040513d601f19601f8201168201806040525081019061100b91906116f3565b6036546040517f70a0823100000000000000000000000000000000000000000000000000000000815230600482015273ffffffffffffffffffffffffffffffffffffffff909116906370a082319060240160206040518083038186803b15801561107457600080fd5b505afa158015611088573d6000803e3d6000fd5b505050506040513d601f19601f820116820180604052508101906110ac91906116f3565b6039546dffffffffffffffffffffffffffff808216916e01000000000000000000000000000090041661132e565b60395461110b906dffffffffffffffffffffffffffff6e010000000000000000000000000000820481169116611823565b603c556111186001603355565b565b60026033541415611187576040517f08c379a000000000000000000000000000000000000000000000000000000000815260206004820152601f60248201527f5265656e7472616e637947756172643a207265656e7472616e742063616c6c00604482015260640161046d565b6002603355565b604080518082018252601981527f7472616e7366657228616464726573732c75696e743235362900000000000000602091820152815173ffffffffffffffffffffffffffffffffffffffff85811660248301526044808301869052845180840390910181526064909201845291810180517bffffffffffffffffffffffffffffffffffffffffffffffffffffffff167fa9059cbb0000000000000000000000000000000000000000000000000000000017905291516000928392871691611255919061173f565b6000604051808303816000865af19150503d8060008114611292576040519150601f19603f3d011682016040523d82523d6000602084013e611297565b606091505b50915091508180156112c15750805115806112c15750808060200190518101906112c191906116d3565b611327576040517f08c379a000000000000000000000000000000000000000000000000000000000815260206004820152601b60248201527f4755494c442f574554483a205452414e534645525f4641494c45440000000000604482015260640161046d565b5050505050565b6dffffffffffffffffffffffffffff841180159061135a57506dffffffffffffffffffffffffffff8311155b6113c0576040517f08c379a000000000000000000000000000000000000000000000000000000000815260206004820152601360248201527f4755494c44574554483a204f564552464c4f5700000000000000000000000000604482015260640161046d565b60006113d16401000000004261189c565b60395490915060009061140a907c0100000000000000000000000000000000000000000000000000000000900463ffffffff1683611877565b905060008163ffffffff1611801561143157506dffffffffffffffffffffffffffff841615155b801561144c57506dffffffffffffffffffffffffffff831615155b1561151a578063ffffffff16611489856114658661160a565b7bffffffffffffffffffffffffffffffffffffffffffffffffffffffff169061163b565b7bffffffffffffffffffffffffffffffffffffffffffffffffffffffff166114b19190611823565b603a60008282546114c29190611778565b909155505063ffffffff81166114db846114658761160a565b7bffffffffffffffffffffffffffffffffffffffffffffffffffffffff166115039190611823565b603b60008282546115149190611778565b90915550505b6039805463ffffffff84167c0100000000000000000000000000000000000000000000000000000000027bffffffffffffffffffffffffffffffffffffffffffffffffffffffff6dffffffffffffffffffffffffffff8981166e0100000000000000000000000000009081027fffffffff000000000000000000000000000000000000000000000000000000009095168c83161794909417918216831794859055604080519382169282169290921783529290930490911660208201527f1c411e9a96e071241c2f21f7726b17ae89e3cab4c78be50e062b03a9fffbbad1910160405180910390a1505050505050565b60006116356e0100000000000000000000000000006dffffffffffffffffffffffffffff84166117df565b92915050565b60006116576dffffffffffffffffffffffffffff831684611790565b9392505050565b803573ffffffffffffffffffffffffffffffffffffffff8116811461168257600080fd5b919050565b600060208284031215611698578081fd5b6116578261165e565b600080604083850312156116b3578081fd5b6116bc8361165e565b91506116ca6020840161165e565b90509250929050565b6000602082840312156116e4578081fd5b81518015158114611657578182fd5b600060208284031215611704578081fd5b5051919050565b60008060006060848603121561171f578081fd5b83359250602084013591506117366040850161165e565b90509250925092565b60008251815b8181101561175f5760208186018101518583015201611745565b8181111561176d5782828501525b509190910192915050565b6000821982111561178b5761178b6118b0565b500190565b60007bffffffffffffffffffffffffffffffffffffffffffffffffffffffff808416806117bf576117bf6118df565b92169190910492915050565b6000826117da576117da6118df565b500490565b60007bffffffffffffffffffffffffffffffffffffffffffffffffffffffff8083168185168183048111821515161561181a5761181a6118b0565b02949350505050565b6000817fffffffffffffffffffffffffffffffffffffffffffffffffffffffffffffffff048311821515161561185b5761185b6118b0565b500290565b600082821015611872576118726118b0565b500390565b600063ffffffff83811690831681811015611894576118946118b0565b039392505050565b6000826118ab576118ab6118df565b500690565b7f4e487b7100000000000000000000000000000000000000000000000000000000600052601160045260246000fd5b7f4e487b7100000000000000000000000000000000000000000000000000000000600052601260045260246000fdfea2646970667358221220d15a1baabdc5dd9e17a26927e6e19eb7af6251dd5e0b12c87f2680462e767af664736f6c63430008040033",
  "linkReferences": {},
  "deployedLinkReferences": {}
}