{
  "_format": "hh-sol-artifact-1",
  "contractName": "GuildLiquidityPool",
  "sourceName": "contracts/GuildLiquidityPool.sol",
  "abi": [
    {
      "inputs": [
        {
          "internalType": "address",
          "name": "_smartcontract_owner",
          "type": "address"
        }
      ],
      "stateMutability": "nonpayable",
      "type": "constructor"
    },
    {
      "anonymous": false,
      "inputs": [
        {
          "indexed": true,
          "internalType": "address",
          "name": "sender",
          "type": "address"
        },
        {
          "indexed": false,
          "internalType": "uint256",
          "name": "amount0",
          "type": "uint256"
        },
        {
          "indexed": false,
          "internalType": "uint256",
          "name": "amount1",
          "type": "uint256"
        },
        {
          "indexed": true,
          "internalType": "address",
          "name": "to",
          "type": "address"
        }
      ],
      "name": "Burn",
      "type": "event"
    },
    {
      "anonymous": false,
      "inputs": [
        {
          "indexed": true,
          "internalType": "address",
          "name": "sender",
          "type": "address"
        },
        {
          "indexed": false,
          "internalType": "uint256",
          "name": "amount0",
          "type": "uint256"
        },
        {
          "indexed": false,
          "internalType": "uint256",
          "name": "amount1",
          "type": "uint256"
        }
      ],
      "name": "Mint",
      "type": "event"
    },
    {
      "anonymous": false,
      "inputs": [
        {
          "indexed": false,
          "internalType": "address",
          "name": "sender",
          "type": "address"
        },
        {
          "indexed": false,
          "internalType": "uint256",
          "name": "amount0",
          "type": "uint256"
        },
        {
          "indexed": false,
          "internalType": "uint256",
          "name": "amount1",
          "type": "uint256"
        }
      ],
      "name": "ProvideLiquidity",
      "type": "event"
    },
    {
      "anonymous": false,
      "inputs": [
        {
          "indexed": false,
          "internalType": "address",
          "name": "sender",
          "type": "address"
        },
        {
          "indexed": false,
          "internalType": "uint256",
          "name": "amount1",
          "type": "uint256"
        }
      ],
      "name": "ProvideLiquidity2",
      "type": "event"
    },
    {
      "anonymous": false,
      "inputs": [
        {
          "indexed": true,
          "internalType": "address",
          "name": "sender",
          "type": "address"
        },
        {
          "indexed": false,
          "internalType": "uint256",
          "name": "amount0In",
          "type": "uint256"
        },
        {
          "indexed": false,
          "internalType": "uint256",
          "name": "amount1In",
          "type": "uint256"
        },
        {
          "indexed": false,
          "internalType": "uint256",
          "name": "amount0Out",
          "type": "uint256"
        },
        {
          "indexed": false,
          "internalType": "uint256",
          "name": "amount1Out",
          "type": "uint256"
        },
        {
          "indexed": true,
          "internalType": "address",
          "name": "to",
          "type": "address"
        }
      ],
      "name": "Swap",
      "type": "event"
    },
    {
      "anonymous": false,
      "inputs": [
        {
          "indexed": false,
          "internalType": "uint112",
          "name": "reserve0",
          "type": "uint112"
        },
        {
          "indexed": false,
          "internalType": "uint112",
          "name": "reserve1",
          "type": "uint112"
        }
      ],
      "name": "Sync",
      "type": "event"
    },
    {
      "inputs": [],
      "name": "PERMIT_TYPEHASH",
      "outputs": [
        {
          "internalType": "bytes32",
          "name": "",
          "type": "bytes32"
        }
      ],
      "stateMutability": "view",
      "type": "function"
    },
    {
      "inputs": [],
      "name": "collatDollarBalance",
      "outputs": [
        {
          "internalType": "uint256",
          "name": "",
          "type": "uint256"
        }
      ],
      "stateMutability": "view",
      "type": "function"
    },
    {
      "inputs": [],
      "name": "getReserves",
      "outputs": [
        {
          "internalType": "uint112",
          "name": "_reserve0",
          "type": "uint112"
        },
        {
          "internalType": "uint112",
          "name": "_reserve1",
          "type": "uint112"
        },
        {
          "internalType": "uint32",
          "name": "_blockTimestampLast",
          "type": "uint32"
        }
      ],
      "stateMutability": "view",
      "type": "function"
    },
    {
      "inputs": [
        {
          "internalType": "address",
          "name": "_guild_token",
          "type": "address"
        },
        {
          "internalType": "address",
          "name": "_weth_address",
          "type": "address"
        }
      ],
      "name": "initialize",
      "outputs": [],
      "stateMutability": "nonpayable",
      "type": "function"
    },
    {
      "inputs": [],
      "name": "kLast",
      "outputs": [
        {
          "internalType": "uint256",
          "name": "",
          "type": "uint256"
        }
      ],
      "stateMutability": "view",
      "type": "function"
    },
    {
      "inputs": [
        {
          "internalType": "address",
          "name": "",
          "type": "address"
        }
      ],
      "name": "nonces",
      "outputs": [
        {
          "internalType": "uint256",
          "name": "",
          "type": "uint256"
        }
      ],
      "stateMutability": "view",
      "type": "function"
    },
    {
      "inputs": [],
      "name": "price0CumulativeLast",
      "outputs": [
        {
          "internalType": "uint256",
          "name": "",
          "type": "uint256"
        }
      ],
      "stateMutability": "view",
      "type": "function"
    },
    {
      "inputs": [],
      "name": "price1CumulativeLast",
      "outputs": [
        {
          "internalType": "uint256",
          "name": "",
          "type": "uint256"
        }
      ],
      "stateMutability": "view",
      "type": "function"
    },
    {
      "inputs": [
        {
          "internalType": "address",
          "name": "_smartcontract_owner",
          "type": "address"
        }
      ],
      "name": "setSmartContractOwner",
      "outputs": [],
      "stateMutability": "nonpayable",
      "type": "function"
    },
    {
      "inputs": [
        {
          "internalType": "address",
          "name": "to",
          "type": "address"
        }
      ],
      "name": "skim",
      "outputs": [],
      "stateMutability": "nonpayable",
      "type": "function"
    },
    {
      "inputs": [],
      "name": "smartcontract_owner",
      "outputs": [
        {
          "internalType": "address",
          "name": "",
          "type": "address"
        }
      ],
      "stateMutability": "view",
      "type": "function"
    },
    {
      "inputs": [
        {
          "internalType": "uint256",
          "name": "amount0Out",
          "type": "uint256"
        },
        {
          "internalType": "uint256",
          "name": "amount1Out",
          "type": "uint256"
        },
        {
          "internalType": "address",
          "name": "to",
          "type": "address"
        }
      ],
      "name": "swap",
      "outputs": [],
      "stateMutability": "nonpayable",
      "type": "function"
    },
    {
      "inputs": [],
      "name": "sync",
      "outputs": [],
      "stateMutability": "nonpayable",
      "type": "function"
    }
  ],
  "bytecode": "0x60806040523480156200001157600080fd5b506040516200254038038062002540833981810160405281019062000037919062000163565b6001603381905550600073ffffffffffffffffffffffffffffffffffffffff168173ffffffffffffffffffffffffffffffffffffffff1603620000b1576040517f08c379a0000000000000000000000000000000000000000000000000000000008152600401620000a890620001f6565b60405180910390fd5b80603760006101000a81548173ffffffffffffffffffffffffffffffffffffffff021916908373ffffffffffffffffffffffffffffffffffffffff1602179055505062000218565b600080fd5b600073ffffffffffffffffffffffffffffffffffffffff82169050919050565b60006200012b82620000fe565b9050919050565b6200013d816200011e565b81146200014957600080fd5b50565b6000815190506200015d8162000132565b92915050565b6000602082840312156200017c576200017b620000f9565b5b60006200018c848285016200014c565b91505092915050565b600082825260208201905092915050565b7f5a65726f20616464726573732064657465637465640000000000000000000000600082015250565b6000620001de60158362000195565b9150620001eb82620001a6565b602082019050919050565b600060208201905081810360008301526200021181620001cf565b9050919050565b61231880620002286000396000f3fe608060405234801561001057600080fd5b50600436106100cf5760003560e01c80636d9a640a1161008c57806398ee20ab1161006657806398ee20ab146101f2578063bc25cf771461020e578063bf9e7a121461022a578063fff6cae914610248576100cf565b80636d9a640a146101885780637464fc3d146101a45780637ecebe00146101c2576100cf565b80630902f1ac146100d457806317284c94146100f457806330adf81f14610112578063485cc955146101305780635909c0d51461014c5780635a3d54931461016a575b600080fd5b6100dc610252565b6040516100eb939291906116e8565b60405180910390f35b6100fc6102af565b6040516101099190611738565b60405180910390f35b61011a6103fb565b604051610127919061176c565b60405180910390f35b61014a600480360381019061014591906117ea565b610422565b005b6101546106f0565b6040516101619190611738565b60405180910390f35b6101726106f6565b60405161017f9190611738565b60405180910390f35b6101a2600480360381019061019d9190611856565b6106fc565b005b6101ac610bf2565b6040516101b99190611738565b60405180910390f35b6101dc60048036038101906101d791906118a9565b610bf8565b6040516101e99190611738565b60405180910390f35b61020c600480360381019061020791906118a9565b610c10565b005b610228600480360381019061022391906118a9565b610d63565b005b610232610f3c565b60405161023f91906118e5565b60405180910390f35b610250610f62565b005b6000806000603960009054906101000a90046dffffffffffffffffffffffffffff1692506039600e9054906101000a90046dffffffffffffffffffffffffffff1691506039601c9054906101000a900463ffffffff169050909192565b6000620f4240603860009054906101000a900473ffffffffffffffffffffffffffffffffffffffff1673ffffffffffffffffffffffffffffffffffffffff1663345ba24b6040518163ffffffff1660e01b8152600401602060405180830381865afa158015610322573d6000803e3d6000fd5b505050506040513d601f19601f820116820180604052508101906103469190611915565b603660009054906101000a900473ffffffffffffffffffffffffffffffffffffffff1673ffffffffffffffffffffffffffffffffffffffff166370a08231306040518263ffffffff1660e01b81526004016103a191906118e5565b602060405180830381865afa1580156103be573d6000803e3d6000fd5b505050506040513d601f19601f820116820180604052508101906103e29190611915565b6103ec9190611971565b6103f691906119e2565b905090565b7f6e71edae12b1b97f4d1f60370fef10105fa2faae0126114a169c64845d6126c960001b81565b600060019054906101000a900460ff16806104415750610440611158565b5b80610457575060008054906101000a900460ff16155b610496576040517f08c379a000000000000000000000000000000000000000000000000000000000815260040161048d90611a96565b60405180910390fd5b60008060019054906101000a900460ff1615905080156104e6576001600060016101000a81548160ff02191690831515021790555060016000806101000a81548160ff0219169083151502179055505b603760009054906101000a900473ffffffffffffffffffffffffffffffffffffffff1673ffffffffffffffffffffffffffffffffffffffff163373ffffffffffffffffffffffffffffffffffffffff1614610576576040517f08c379a000000000000000000000000000000000000000000000000000000000815260040161056d90611b02565b60405180910390fd5b600073ffffffffffffffffffffffffffffffffffffffff168373ffffffffffffffffffffffffffffffffffffffff16036105e5576040517f08c379a00000000000000000000000000000000000000000000000000000000081526004016105dc90611b6e565b60405180910390fd5b82603560006101000a81548173ffffffffffffffffffffffffffffffffffffffff021916908373ffffffffffffffffffffffffffffffffffffffff160217905550603560009054906101000a900473ffffffffffffffffffffffffffffffffffffffff16603860006101000a81548173ffffffffffffffffffffffffffffffffffffffff021916908373ffffffffffffffffffffffffffffffffffffffff16021790555081603660006101000a81548173ffffffffffffffffffffffffffffffffffffffff021916908373ffffffffffffffffffffffffffffffffffffffff16021790555080156106eb5760008060016101000a81548160ff0219169083151502179055505b505050565b603a5481565b603b5481565b61070461116f565b60008311806107135750600082115b610752576040517f08c379a000000000000000000000000000000000000000000000000000000000815260040161074990611c00565b60405180910390fd5b60008061075d610252565b5091509150816dffffffffffffffffffffffffffff16851080156107905750806dffffffffffffffffffffffffffff1684105b6107cf576040517f08c379a00000000000000000000000000000000000000000000000000000000081526004016107c690611c92565b60405180910390fd5b6000806000603560009054906101000a900473ffffffffffffffffffffffffffffffffffffffff1690506000603660009054906101000a900473ffffffffffffffffffffffffffffffffffffffff1690508173ffffffffffffffffffffffffffffffffffffffff168773ffffffffffffffffffffffffffffffffffffffff161415801561088857508073ffffffffffffffffffffffffffffffffffffffff168773ffffffffffffffffffffffffffffffffffffffff1614155b6108c7576040517f08c379a00000000000000000000000000000000000000000000000000000000081526004016108be90611cfe565b60405180910390fd5b60008911156108dc576108db82888b6111be565b5b60008811156108f1576108f081888a6111be565b5b8173ffffffffffffffffffffffffffffffffffffffff166370a08231306040518263ffffffff1660e01b815260040161092a91906118e5565b602060405180830381865afa158015610947573d6000803e3d6000fd5b505050506040513d601f19601f8201168201806040525081019061096b9190611915565b93508073ffffffffffffffffffffffffffffffffffffffff166370a08231306040518263ffffffff1660e01b81526004016109a691906118e5565b602060405180830381865afa1580156109c3573d6000803e3d6000fd5b505050506040513d601f19601f820116820180604052508101906109e79190611915565b92505050600087856dffffffffffffffffffffffffffff16610a099190611d1e565b8311610a16576000610a3e565b87856dffffffffffffffffffffffffffff16610a329190611d1e565b83610a3d9190611d1e565b5b9050600087856dffffffffffffffffffffffffffff16610a5e9190611d1e565b8311610a6b576000610a93565b87856dffffffffffffffffffffffffffff16610a879190611d1e565b83610a929190611d1e565b5b90506000821180610aa45750600081115b610ae3576040517f08c379a0000000000000000000000000000000000000000000000000000000008152600401610ada90611dc4565b60405180910390fd5b60008490506000849050866dffffffffffffffffffffffffffff16886dffffffffffffffffffffffffffff16610b199190611971565b8183610b259190611971565b1015610b66576040517f08c379a0000000000000000000000000000000000000000000000000000000008152600401610b5d90611e30565b60405180910390fd5b5050610b7484848888611348565b8673ffffffffffffffffffffffffffffffffffffffff163373ffffffffffffffffffffffffffffffffffffffff167fd78ad95fa46c994b6551d0da85fc275fe613ce37657fb8d5e3d130840159d82284848d8d604051610bd79493929190611e50565b60405180910390a3505050505050610bed61163c565b505050565b603c5481565b60346020528060005260406000206000915090505481565b610c1861116f565b603760009054906101000a900473ffffffffffffffffffffffffffffffffffffffff1673ffffffffffffffffffffffffffffffffffffffff163373ffffffffffffffffffffffffffffffffffffffff1614610ca8576040517f08c379a0000000000000000000000000000000000000000000000000000000008152600401610c9f90611f07565b60405180910390fd5b600073ffffffffffffffffffffffffffffffffffffffff168173ffffffffffffffffffffffffffffffffffffffff1603610d17576040517f08c379a0000000000000000000000000000000000000000000000000000000008152600401610d0e90611b6e565b60405180910390fd5b80603760006101000a81548173ffffffffffffffffffffffffffffffffffffffff021916908373ffffffffffffffffffffffffffffffffffffffff160217905550610d6061163c565b50565b610d6b61116f565b6000603560009054906101000a900473ffffffffffffffffffffffffffffffffffffffff1690506000603660009054906101000a900473ffffffffffffffffffffffffffffffffffffffff169050610e748284603960009054906101000a90046dffffffffffffffffffffffffffff166dffffffffffffffffffffffffffff168573ffffffffffffffffffffffffffffffffffffffff166370a08231306040518263ffffffff1660e01b8152600401610e2491906118e5565b602060405180830381865afa158015610e41573d6000803e3d6000fd5b505050506040513d601f19601f82011682018060405250810190610e659190611915565b610e6f9190611d1e565b6111be565b610f2f81846039600e9054906101000a90046dffffffffffffffffffffffffffff166dffffffffffffffffffffffffffff168473ffffffffffffffffffffffffffffffffffffffff166370a08231306040518263ffffffff1660e01b8152600401610edf91906118e5565b602060405180830381865afa158015610efc573d6000803e3d6000fd5b505050506040513d601f19601f82011682018060405250810190610f209190611915565b610f2a9190611d1e565b6111be565b5050610f3961163c565b50565b603760009054906101000a900473ffffffffffffffffffffffffffffffffffffffff1681565b610f6a61116f565b6110e4603560009054906101000a900473ffffffffffffffffffffffffffffffffffffffff1673ffffffffffffffffffffffffffffffffffffffff166370a08231306040518263ffffffff1660e01b8152600401610fc891906118e5565b602060405180830381865afa158015610fe5573d6000803e3d6000fd5b505050506040513d601f19601f820116820180604052508101906110099190611915565b603660009054906101000a900473ffffffffffffffffffffffffffffffffffffffff1673ffffffffffffffffffffffffffffffffffffffff166370a08231306040518263ffffffff1660e01b815260040161106491906118e5565b602060405180830381865afa158015611081573d6000803e3d6000fd5b505050506040513d601f19601f820116820180604052508101906110a59190611915565b603960009054906101000a90046dffffffffffffffffffffffffffff166039600e9054906101000a90046dffffffffffffffffffffffffffff16611348565b6039600e9054906101000a90046dffffffffffffffffffffffffffff166dffffffffffffffffffffffffffff16603960009054906101000a90046dffffffffffffffffffffffffffff166dffffffffffffffffffffffffffff166111489190611971565b603c8190555061115661163c565b565b6000803090506000813b9050600081149250505090565b6002603354036111b4576040517f08c379a00000000000000000000000000000000000000000000000000000000081526004016111ab90611f73565b60405180910390fd5b6002603381905550565b6000808473ffffffffffffffffffffffffffffffffffffffff166040518060400160405280601981526020017f7472616e7366657228616464726573732c75696e743235362900000000000000815250805190602001208585604051602401611228929190611f93565b604051602081830303815290604052907bffffffffffffffffffffffffffffffffffffffffffffffffffffffff19166020820180517bffffffffffffffffffffffffffffffffffffffffffffffffffffffff8381831617835250505050604051611292919061202d565b6000604051808303816000865af19150503d80600081146112cf576040519150601f19603f3d011682016040523d82523d6000602084013e6112d4565b606091505b50915091508180156113025750600081511480611301575080806020019051810190611300919061207c565b5b5b611341576040517f08c379a0000000000000000000000000000000000000000000000000000000008152600401611338906120f5565b60405180910390fd5b5050505050565b6dffffffffffffffffffffffffffff8016841115801561137857506dffffffffffffffffffffffffffff80168311155b6113b7576040517f08c379a00000000000000000000000000000000000000000000000000000000081526004016113ae90612161565b60405180910390fd5b6000640100000000426113ca9190612181565b905060006039601c9054906101000a900463ffffffff16826113ec91906121b2565b905060008163ffffffff1611801561141557506000846dffffffffffffffffffffffffffff1614155b801561143257506000836dffffffffffffffffffffffffffff1614155b15611538578063ffffffff166114778561144b86611646565b7bffffffffffffffffffffffffffffffffffffffffffffffffffffffff1661167a90919063ffffffff16565b7bffffffffffffffffffffffffffffffffffffffffffffffffffffffff1661149f9190611971565b603a60008282546114b091906121ea565b925050819055508063ffffffff166114f7846114cb87611646565b7bffffffffffffffffffffffffffffffffffffffffffffffffffffffff1661167a90919063ffffffff16565b7bffffffffffffffffffffffffffffffffffffffffffffffffffffffff1661151f9190611971565b603b600082825461153091906121ea565b925050819055505b85603960006101000a8154816dffffffffffffffffffffffffffff02191690836dffffffffffffffffffffffffffff160217905550846039600e6101000a8154816dffffffffffffffffffffffffffff02191690836dffffffffffffffffffffffffffff160217905550816039601c6101000a81548163ffffffff021916908363ffffffff1602179055507f1c411e9a96e071241c2f21f7726b17ae89e3cab4c78be50e062b03a9fffbbad1603960009054906101000a90046dffffffffffffffffffffffffffff166039600e9054906101000a90046dffffffffffffffffffffffffffff1660405161162c92919061221e565b60405180910390a1505050505050565b6001603381905550565b60006e010000000000000000000000000000826dffffffffffffffffffffffffffff16611673919061226f565b9050919050565b6000816dffffffffffffffffffffffffffff168361169891906122b1565b905092915050565b60006dffffffffffffffffffffffffffff82169050919050565b6116c3816116a0565b82525050565b600063ffffffff82169050919050565b6116e2816116c9565b82525050565b60006060820190506116fd60008301866116ba565b61170a60208301856116ba565b61171760408301846116d9565b949350505050565b6000819050919050565b6117328161171f565b82525050565b600060208201905061174d6000830184611729565b92915050565b6000819050919050565b61176681611753565b82525050565b6000602082019050611781600083018461175d565b92915050565b600080fd5b600073ffffffffffffffffffffffffffffffffffffffff82169050919050565b60006117b78261178c565b9050919050565b6117c7816117ac565b81146117d257600080fd5b50565b6000813590506117e4816117be565b92915050565b6000806040838503121561180157611800611787565b5b600061180f858286016117d5565b9250506020611820858286016117d5565b9150509250929050565b6118338161171f565b811461183e57600080fd5b50565b6000813590506118508161182a565b92915050565b60008060006060848603121561186f5761186e611787565b5b600061187d86828701611841565b935050602061188e86828701611841565b925050604061189f868287016117d5565b9150509250925092565b6000602082840312156118bf576118be611787565b5b60006118cd848285016117d5565b91505092915050565b6118df816117ac565b82525050565b60006020820190506118fa60008301846118d6565b92915050565b60008151905061190f8161182a565b92915050565b60006020828403121561192b5761192a611787565b5b600061193984828501611900565b91505092915050565b7f4e487b7100000000000000000000000000000000000000000000000000000000600052601160045260246000fd5b600061197c8261171f565b91506119878361171f565b92508282026119958161171f565b915082820484148315176119ac576119ab611942565b5b5092915050565b7f4e487b7100000000000000000000000000000000000000000000000000000000600052601260045260246000fd5b60006119ed8261171f565b91506119f88361171f565b925082611a0857611a076119b3565b5b828204905092915050565b600082825260208201905092915050565b7f436f6e747261637420696e7374616e63652068617320616c726561647920626560008201527f656e20696e697469616c697a6564000000000000000000000000000000000000602082015250565b6000611a80602e83611a13565b9150611a8b82611a24565b604082019050919050565b60006020820190508181036000830152611aaf81611a73565b9050919050565b7f4755494c442f574554483a20464f5242494444454e0000000000000000000000600082015250565b6000611aec601583611a13565b9150611af782611ab6565b602082019050919050565b60006020820190508181036000830152611b1b81611adf565b9050919050565b7f5a65726f20616464726573732064657465637465640000000000000000000000600082015250565b6000611b58601583611a13565b9150611b6382611b22565b602082019050919050565b60006020820190508181036000830152611b8781611b4b565b9050919050565b7f585344574554483a20494e53554646494349454e545f4f55545055545f414d4f60008201527f554e540000000000000000000000000000000000000000000000000000000000602082015250565b6000611bea602383611a13565b9150611bf582611b8e565b604082019050919050565b60006020820190508181036000830152611c1981611bdd565b9050919050565b7f4755494c44574554483a20494e53554646494349454e545f4c4951554944495460008201527f5900000000000000000000000000000000000000000000000000000000000000602082015250565b6000611c7c602183611a13565b9150611c8782611c20565b604082019050919050565b60006020820190508181036000830152611cab81611c6f565b9050919050565b7f4755494c44574554483a20494e56414c49445f544f0000000000000000000000600082015250565b6000611ce8601583611a13565b9150611cf382611cb2565b602082019050919050565b60006020820190508181036000830152611d1781611cdb565b9050919050565b6000611d298261171f565b9150611d348361171f565b9250828203905081811115611d4c57611d4b611942565b5b92915050565b7f4755494c44574554483a20494e53554646494349454e545f494e5055545f414d60008201527f4f554e5400000000000000000000000000000000000000000000000000000000602082015250565b6000611dae602483611a13565b9150611db982611d52565b604082019050919050565b60006020820190508181036000830152611ddd81611da1565b9050919050565b7f4755494c44574554483a204b0000000000000000000000000000000000000000600082015250565b6000611e1a600c83611a13565b9150611e2582611de4565b602082019050919050565b60006020820190508181036000830152611e4981611e0d565b9050919050565b6000608082019050611e656000830187611729565b611e726020830186611729565b611e7f6040830185611729565b611e8c6060830184611729565b95945050505050565b7f4f6e6c792074686520736d61727420636f6e7472616374206f776e657220636160008201527f6e2061636365737320746869732066756e6374696f6e00000000000000000000602082015250565b6000611ef1603683611a13565b9150611efc82611e95565b604082019050919050565b60006020820190508181036000830152611f2081611ee4565b9050919050565b7f5265656e7472616e637947756172643a207265656e7472616e742063616c6c00600082015250565b6000611f5d601f83611a13565b9150611f6882611f27565b602082019050919050565b60006020820190508181036000830152611f8c81611f50565b9050919050565b6000604082019050611fa860008301856118d6565b611fb56020830184611729565b9392505050565b600081519050919050565b600081905092915050565b60005b83811015611ff0578082015181840152602081019050611fd5565b60008484015250505050565b600061200782611fbc565b6120118185611fc7565b9350612021818560208601611fd2565b80840191505092915050565b60006120398284611ffc565b915081905092915050565b60008115159050919050565b61205981612044565b811461206457600080fd5b50565b60008151905061207681612050565b92915050565b60006020828403121561209257612091611787565b5b60006120a084828501612067565b91505092915050565b7f4755494c442f574554483a205452414e534645525f4641494c45440000000000600082015250565b60006120df601b83611a13565b91506120ea826120a9565b602082019050919050565b6000602082019050818103600083015261210e816120d2565b9050919050565b7f4755494c44574554483a204f564552464c4f5700000000000000000000000000600082015250565b600061214b601383611a13565b915061215682612115565b602082019050919050565b6000602082019050818103600083015261217a8161213e565b9050919050565b600061218c8261171f565b91506121978361171f565b9250826121a7576121a66119b3565b5b828206905092915050565b60006121bd826116c9565b91506121c8836116c9565b9250828203905063ffffffff8111156121e4576121e3611942565b5b92915050565b60006121f58261171f565b91506122008361171f565b925082820190508082111561221857612217611942565b5b92915050565b600060408201905061223360008301856116ba565b61224060208301846116ba565b9392505050565b60007bffffffffffffffffffffffffffffffffffffffffffffffffffffffff82169050919050565b600061227a82612247565b915061228583612247565b925082820261229381612247565b915082820484148315176122aa576122a9611942565b5b5092915050565b60006122bc82612247565b91506122c783612247565b9250826122d7576122d66119b3565b5b82820490509291505056fea2646970667358221220d3fbd78a901548d4e4546a08fe0f825580b27663cf6019d3bf8311abc8d7306664736f6c63430008110033",
  "linkReferences": {},
  "deployedLinkReferences": {}
}